:40000000021C95008F828E83E0540100000070F82278FFE4F6D8FD021D230203DBE86480F8E933E83360110460F0ED33EC337009E8FCE9FDEAFEEBFF220460DED3EB9FEA25
:400040009EE99DE8C2E78CF0C2F795F0400CE8CCF8E9CDF9EACEFAEBCFFB1203A685D0F05804700320D5B3E80470075002B2D50203E592D5EC0460F7E4CCC0E0C398F860B5
:400080003B94186008400DD0E0FB0203BDE4FBFAC9FC8028E830E406E4C9FBE4CAFCE830E305E4C9CACBFCE854076010F8C3E913F9EA13FAEB13FBEC13FCD8F130F52FC331
:4000C000E49CFCEF9BFFEE9AFEED99FDD0E0FBEF4E4D4C701222DB030203E2EC2CFCEF33FFEE33FEED33FDED30E7EB0203BDEF2BFFEE3AFEED39FDD0E0FB50130BBB0003AD
:400100000203E5ED13FDEE13FEEF13FFEC13FC0203BDEC4D6011E8497017ED33EC3304600DE4FCFFFEFD22E933E8330470F80203DB1203A658046009E4CC248150062850E7
:40014000090203E52840030203E2C0E0EB4A7044B98006D0E0FB0203D1EF4E701CBD8008EBFFEAFEE9FD80EBE98DF0A4FEE5F00201FBE9CDF9EAFEEBFFEF89F0A4FCE5F087
:40018000CE89F0A42EFFE435F0CD89F0A42DFEE435F08067EF4E7005BD80D780C3EF8BF0A4ACF0EE8BF0A42CFCE435F0F8EF8AF0A42CE5F038FCE433CB8DF0A42CFCE5F0EE
:4001C0003BF8EE8AF0A42CFCE5F038F8E433CF89F0A42CFCE5F038CF3400CE89F0A42FFFE5F03EFEE433C98DF0A42EFEE5F039CD8AF0A42FFFE5F03EFEE43DFD33D0E0FBCD
:4002000050070BBB000F0203E5EC2CFCEF33FFEE33FEED33FD0203BD0203E5EC5D046005E8590470030203DB1203A6580460F6EC4860F2EC7004FDFEFF22C860DB2481C862
:400240005009C398600250060203E29850CAF582E9294B4A7005AB820203D175F0007C1A7880C3EF9BEE9AED99400DC3EF9BFFEE9AFEED99FDE842F0DC23ACF0D0E0FFD0BF
:40028000E0FED0E0FDAB8220E7101BEB60BAEC2CFCEF33FFEE33FEED33FD0203BDE803F830E705C0F075F000EF2FFFEE33FEED33FD40B830E7C280AA74F8CC6480CCC864A0
:4002C00080C8F58204604FC3EB9FF5F0EA9E42F0E99D42F0E89C45F0603C501DE5825FFFE582D313CB5BCBF42B5582FB50280ABA002409B9002008801DE5825BFBE582D354
:4003000013CF5FCFF4C3132F5582FF50090EBE00050DBD00010CC3EB9FF5F0EA9E42F0E99D42F0E89C45F06007CC4820E701B3EC2275F020800E75F010800575F0087D0045
:400340007E007F003392D530D503120634EC334010EF33FFEE33FEED33FDEC33FCD5F0ED22E5F0247EA2D513CC92E7CDCEFF22EDD2E7CD33EC3392D524814006E4FFFEFDE0
:40038000FC22FCE4CFCECDCC24E0501174FF80EDC3CC13CCCD13CDCE13CECF13CF0470F030D5DE020634E9D2E7C933E833F892D5EDD2E7CD33EC33FC5002B2D522EC30E7EF
:4003C000100FBF000C0EBE00080DBD00040BEB6014A2D5EB13FCED92E7FD2274FFFCFDFEFF22E480F8A2D574FF13FC7D80E480EFBB010689828A83E0225002E722BBFE02EF
:40040000E32289828A83E49322BB010689828A83F0225002F722BBFE01F322EF8DF0A4A8F0CF8CF0A428CE8DF0A42EFE22BC000BBE0029EF8DF084FFADF022E4CCF875F07B
:4004400008EF2FFFEE33FEEC33FCEE9DEC984005FCEE9DFE0FD5F0E9E4CEFD22EDF8F5F0EE8420D21CFEADF075F008EF2FFFED33FD4007985006D5F0F222C398FD0FD5F0F0
:40048000EA22C5F0F8A3E028F0C5F0F8E582158270021583E038F022BB010A89828A83E0F5F0A3E022500687F009E71922BBFE07E3F5F009E3192289828A83E493F5F07432
:4004C000019322BB010A89828A83F0E5F0A3F0225006F709A7F01922BBFE06F3E5F009F31922EF2BFFEE3AFEED39FDEC38FC22C3EF9BFFEE9AFEED99FDEC98FC22E88FF006
:40050000A4CC8BF0A42CFCE98EF0A42CFC8AF0EDA42CFCEA8EF0A4CDA8F08BF0A42DCC3825F0FDE98FF0A42CCD35F0FCEB8EF0A4FEA9F0EB8FF0A4CFC5F02ECD39FEE43C1D
:40054000FCEAA42DCE35F0FDE43CFC2275F008758200EF2FFFEE33FECD33CDCC33CCC58233C5829BED9AEC99E58298400CF582EE9BFEED9AFDEC99FC0FD5F0D6E4CEFBE46D
:40058000CDFAE4CCF9A88222B800C1B90059BA002DEC8BF084CFCECDFCE5F0CBF97818EF2FFFEE33FEED33FDEC33FCEB33FB10D703994004EB99FB0FD8E5E4F9FA2278186B
:4005C000EF2FFFEE33FEED33FDEC33FCC933C910D7059BE99A4007EC9BFCE99AF90FD8E0E4C9FAE4CCFB2275F010EF2FFFEE33FEED33FDCC33CCC833C810D7079BEC9AE8E4
:4006000099400AED9BFDEC9AFCE899F80FD5F0DAE4CDFBE4CCFAE4C8F922EF5BFFEE5AFEED59FDEC58FC22EF4BFFEE4AFEED49FDEC48FC22C3E49FFFE49EFEE49DFDE49CA1
:40064000FC22EB9FF5F0EA9E42F0E99D42F0E89C45F022E8600FECC313FCED13FDEE13FEEF13FFD8F122E8600FEFC333FFEE33FEED33FDEC33FCD8F122BB010789828A834B
:400680000206995005E9F8020909BBFE05E9F802091589828A83020921E0FCA3E0FDA3E0FEA3E0FF22E0F8A3E0F9A3E0FAA3E0FB22ECF0A3EDF0A3EEF0A3EFF022A425828E
:4006C000F582E5F03583F58322E0FBA3E0FAA3E0F922EBF0A3EAF0A3E9F022D083D082F8E4937012740193700DA3A393F8740193F5828883E4737402936860EFA3A3A3807A
:40070000DFE5092582F582E5083583F583B508048582092210AF06858209F50822858209F508D2AF22EC8EF0A4CCC5F0CCCDF8EFA4CEC5F02DFDE43CFCE8A42EC8C5F03D2A
:40074000FDE43CFCEFA4FFE5F028FEE43DFDE43CFC22E709F608DFFA8046E709F208DFFA803E88828C83E709F0A3DFFA8032E309F608DFFA806EE309F208DFFA80668882E2
:400780008C83E309F0A3DFFA805A89828A83E0A3F608DFFA804E89828A83E0A3F208DFFA804280D280FA80C680D4805580F28029801080A680EA809A80A880DA80E280CACA
:4007C000802988848C8589828A83E493A30586F0A30586DFF5DEF3800B89828A83E493A3F608DFF9ECFAA9F0EDFB2288848C8589828A83E0A30586F0A30586DFF6DEF4800F
:40080000E389828A83E493A3F208DFF980D688F0EF60010E4E60CD88F0ED2402B4040050C3F582EB2402B4040050B923234582239007A273E709F60870FA8046E709F208A7
:4008400070FA803E88828C83E709F0A370FA8074E309F60870FA806CE309F20870FA806488828C83E309F0A370FA805889828A83E0A3F60870FA804C89828A83E0A3F208A4
:4008800070FA804080D280FA80C680D4805180F28027801080A680EA809A80A880DA80E280CA802788848C8589828A83E493A30586F0A3058670F5800B89828A83E493A395
:4008C000F60870F9ECFAA9F0EDFB2288848C8589828A83E0A30586F0A3058670F680E589828A83E493A3F20870F980D888F0ED2402B4040050CEF582EB2402B4040050C43A
:40090000232345822390088473E6FC08E6FD08E6FE08E6FF22E2FC08E2FD08E2FE08E2FF22E493FC740193FD740293FE740393FF2290003FEFF090003FE0FFEF903A5A93CC
:40094000FF900048EFF0900048E0FF74852FF582E43400F583E0FF900049EFF090003FE0FFEF25E024A4F582E43400F583E0FEA3E0FF900046EEF0A3EFF090003FE0FF127D
:40098000371E90003FE0FFEF25E02479F582E43400F583E0FEA3E0FF900046E0FCA3E0FDC3ED9FEC9E403590003FE0FFEF25E02479F582E43400F583E0FEA3E0FF90004640
:4009C000E0FCA3E0FDC3ED9FFFEC9EFE900044EEF0A3EFF09000487401F0803290003FE0FFEF25E02479F582E43400F583E0FEA3E0FF900046E0FCA3E0FDC3EF9DFFEE9CF2
:400A0000FE900044EEF0A3EFF0900048E4F0900048E0FFEF7059900044E0FEA3E0FFD3EF9414EE9400404890003FE0FF74772FF582E43400F583E0FFEFC39405401C9000DC
:400A40003FE0FF12297790003FE0FF74772FF582E43400F583E4F0020B8B90003FE0FF74772FF582E43400F583E004F0020B8B900049E0FF7E00900044E0FCA3E0FDD3ED0A
:400A80009FEC9E401F900044E0FEA3E0FFC3EF9414EE94004003020B8B900048E0FFEF6003020B8B90003FE0FFEF25E02479F582E43400F583E0FEA3E0FFE4FCFD7808120D
:400AC00006669000401206B19000401206A590003FE0FF74892FF582E43400F583E0FFE4FCFDFE1206279000401206B19000401206A5900046E0FEA3E0FFE4FCFD1204E259
:400B00009000401206B1900040120699C004C005C006C00790003FE0FFEF25E02479F582E43400F583E0FEA3E0FFAB07AA06E4F9F8D007D006D005D0041204EF900040126B
:400B400006B1900040120699780812065390003FE0FDED25E02479F582E43400F583EEF0A3EFF090004012069990003FE0FE74892EF582E43400F583EFF090003FE0FF744F
:400B8000772FF582E43400F583E4F0900049E0FF7E00900044E0FCA3E0FDD3ED9FEC9E4046900048E0FFEF603E900044E0FEA3E0FFD3EF94FFEE9400401390003FE0FF741B
:400BC0008B2FF582E43400F58374FFF022900044E0FEA3E0FF90003FE0FE748B2EF582E43400F583EFF02290003FE0FF748B2FF582E43400F583E4F02290003CEFF0900085
:400C00003DECF0A3EDF090003FEAF0A3EBF090003CE0FFEF1206DB0C27040C54070C7F080CAA0A00000CD5900041E0FFEFD3940F40117B0C7A017914123774900042EFF032
:400C4000020CDA7B0C7A017918123774900042EFF0020CDA900041E0FFEFD3940F40107B0C7A017915123774900042EFF0806B7B0C7A017919123774900042EFF0805B90E8
:400C80000041E0FFEFD3940F40107B0C7A017916123774900042EFF080407B0C7A01791A123774900042EFF08030900041E0FFEFD3940F40107B0C7A0179171237749000A9
:400CC00042EFF080157B0C7A01791B123774900042EFF08005900042E4F090003CE0FFEF603B90003CE0FFEF6401603190003CE0FFEF6402602790003CE0FFEF6403601D45
:400D000090003CE0FFEF6405601390003CE0FFEF6406600990003CE0FFEFB4090A900043E4F0A3E4F0801D900042E0FFEF3395E0FEEF7805C333CE33CED8F9FF900043EEAC
:400D4000F0A3EFF0900043E0FEA3E0FF90003DE0FCA3E0FDED2FFFEC3EFE900045EEF0A3EFF090003FE0FEA3E0FF900045E0FCA3E0FD1207259000471206B17B007A807901
:400D8000007800900047120699120588900045EEF0A3EFF0900041E0FFEFC3940E5037900045E0FEA3E0FF900041E0FDC3740E9DFDEFA805088005CEC313CE13D8F9FF9004
:400DC0000045EEF0A3EFF0900041E0FFEF04FF904E0EEFF08006904E0E740FF0900045E0FEA3E0FF904E0CEFF0900045E0FEA3E0FFEEFF7E00904E0DEFF090003CE0FFEFFA
:400E0000B4010F904E0CE4F0904E0DE4F0904E0EE4F0229048007480F0907010E4F0907020E4F07B007A4679E8123774EF4401FD7B007A4679E8123780121EAD7B087A131F
:400E40007900C003C002C0017B007A5279009000481206D2D001D002D0037F077E001233387B007A5279087D077C001236547B007A5279107D077C001236547B007A5279AA
:400E8000187D077C001236547B007A5279207D077C001236547B007A5279287D077C001236547B007A5279307D077C001236547B007A5279607D067C001236547B007A52F0
:400EC00079787D077C001236547B007A5879707D007C031237017B007A58794C7D037C021237017B017A507903123774EF4402FD7B017A5079031237807B017A507913126F
:400F00003774EF4402FD7B017A5079131237809043A0E0FFEF4440FF9043A0EFF09043C2E0FFEF4410FF9043C2EFF07B087A1279E8C003C002C0017B007A517902900048AA
:400F40001206D2D001D002D0037F087E001233387B087A1279F0C003C002C0017B007A5179129000481206D2D001D002D0037F087E001233387B087A1279F8C003C002C081
:400F8000017B007A5179229000481206D2D001D002D0037F087E001233389044F47401F0904800E4F012166D9048007440F01233027B007A4379A0C003C002C0017B007AD8
:400FC0004379B09000481206D2D001D002D0037F0C7E001233389043B0E0FFEF54FDFF9043B0EFF02290004BEFF0E0FF900000E0FCA3E02FF582E43CF583E49390004CF099
:401000001214E790004CE0242DF582E43400F583E0FF14F0EF600302110090004CE0FF2418F582E43400F583E0FE9000221206C9E92FF9E43AFAEE12040990004CE0FF24C3
:401040001AF582E43400F583E0FE90002F1206C9E92FF9E43AFAEE1204099000221206C990004CE0FF29F9E43AFA1203F0FEC313FE90002F1206C9E92FF9E43AFA1203F06E
:40108000C39E401490004CE090002F1206C9E92FF9E43AFAEE12040990004CE0FF900025E0FCA3E02FF582E43CF583E493FE742D2FF582E43400F583EEF09000221206C91F
:4010C00090004CE0FF29F9E43AFA1203F0FE1313543FFE9000321206C9E92FF9E43AFAEE12040990004CE0FF2418F582E43400F58374FFF0741A2FF582E43400F583E4F06F
:4011000090004BE0FF240AF582E43400F583E0FE25E0FE74142FF582E43400F583E0FFD39E402190004CE0FD2418F582E43400F583E0D39F402D74182DF582E43400F583F5
:40114000EFF0801F90004CE0FF2418F582E43400F583E0D39E400C74182FF582E43400F583EEF090004BE0FF240AF582E43400F583E0FEC313FDEE2DFE74142FF582E434B7
:4011800000F583E0FF1313543FFFEEC39F5002AE0790004CE0FF241AF582E43400F583E0FDEED39D400C741A2FF582E43400F583EEF022900040EFF0900040E0FFEF13130B
:4011C00013541FFF900042EFF0900040E0FFEF5407FF7401A807088002C333D8FCFF900043EFF0900040E0FFEF903A5A93FF900044EFF0900044E0FF74802FF582E434002C
:40120000F583E0FF900045EFF0900044E0FF74872FF582E43400F583E0FF900046EFF0900044E0FF74822FF582E43400F583E0FF900047EFF0900044E0FF900041EFF090C4
:401240000042E0FF74842FF582E43400F583E0FF900043E0FEEF5EFFEF6065900046E0FF900045E0FEC3EE9FFF900040E0FE748B2EF582E43400F583E0FEEEC39F40030283
:401280001337900042E0FF74842FF582E43400F583C083C082E0FF900043E0FEEEF4FEEF5EFFD082D083EFF0900047E0FF900041E0FE747D2EF582E43400F583EFF08077DF
:4012C000900046E0FF900045E0FEEE2FFF900040E0FE748B2EF582E43400F583E0FEEED39F403E900041E0FF747D2FF582E43400F583E0FF14F0EFD39401503B900042E07E
:40130000FF74842FF582E43400F583C083C082E0FF900043E0FEEF4EFFD082D083EFF08016900047E0FF900041E0FE747D2EF582E43400F583EFF0900042E0FF74842FF5DE
:4013400082E43400F583E0FF900043E0FEEF5EFFEF60047F0180027F0022D2AF1235B21236B37D007F00122C767BFF7A3379C9122E767D007F01122C767BFF7A3379D8120A
:401380002E7612372C1235761234D11232221236C812366DEF70FA122B4E1232227F00122C189000C8EFF07F01122C189000C9EFF07F00122E2412325C9000C0EEF0A3EF6E
:4013C000F09000C0E0FCA3E0FDE41203367B147AAE7977784012021B7B177A4879D0783D1201127B007A007900783F12002112036F9000C2EEF0A3EFF09000C6E0FEA3E0D8
:40140000FF9000C2E0FCA3E0FDD3ED9FEC9E40199000C6E0FEA3E0FF9000C2E0FCA3E0FDC3ED9FFFEC9EFE80047E007F007C007D3212041BC3740F9FFF74279EFE9000BE3D
:40144000EEF0A3EFF09000BEE0FEA3E0FFC3EF94E8EE9403500A9000BE7403F0A374E8F09000BEE0FEA3E0FFD3EF940FEE9427400A9000BE7427F0A3740FF09000BEE0FE8C
:40148000A3E0FF12363A9000C2E0FEA3E0FFD3EF94FFEE947F40089000C2E4F0A3E4F09000C4E0FEA3E0FFC3EF940AEE64809480500D9000C4E475F0011204820213919088
:4014C00000C4E4F0A3E4F09000C2E0FEA3E0FF7D007C001224B89000C8E0FF9000C9E0FD1228EF0213912290004DEFF090001F1206C990004DE0FF75F002A429F9EA35F0A2
:40150000FA120498FD90004EE5F0F0A3EDF075F002EF90000C1206BDE0FEA3E0FF90004EE0FCA3E0FDC3EF9DFFEE9CFE90004DE0F975F0029000101206BDE0FAA3E0C39D5D
:40154000FDEA9C6EFCED6FEC20E703021652EF4E700302165275F002E99000101206BDE0FCA3E0FDC390004FE09DFF90004EE09CFE75F002E990000C1206BDE0FCA3E0FDF4
:4015800075F002E99000101206BDECF0A3EDF0C3EE648094805007C3E49FFFE49EFE7E0090004DE0F92414F582E43400F583E0FDC313FDC3EF9D7480F8984003021652742E
:4015C0000A29F582E43400F583E0FDD3EF9D748098403290004DE0FD2416F582E43400F583E4F074142DF582E43400F583E0FD131313541F04FD740A29F582E43400F583B4
:40160000E02DF0804D740A29F582E43400F583E06F7001EE603C741629F582E43400F583E0C3940A500F741629F582E43400F583E004F0801D90004DE0FF2416F582E434DE
:4016400000F583E4F0740A2FF582E43400F583E014F090004EE0FEA3E0FF90004DE075F00290000C1206BDEEF0A3EFF0227E007F3C900040EEF0A3EFF07B007A4079807F1B
:40168000017E007D187C00122FEE7B007A4079847F007E007D197C00122FEE7B007A4079887F167E007D187C00122FEE7B087A137908C003C002C0017B007A41790090005C
:4016C000481206D2D001D002D0037F047E001233389043007402F09040007408F09042007403F07B0C7A0179081237749046A1EFF07B007A4279227D087C001237017B00E8
:401700007A4279207D517C10123701900042E4F07F197E007D007C0090003C1206B1900040E0FEA3E0FF8F828E83120699EC4D4E4F604E900042E0FFEF640360449042253D
:40174000E0FFEF5401FF7E00900042E0FEEE25E0FEEE4FFFEF5403FF900042EFF07FE07E017D007C0012300090003C1206997BFF7AFF79FF78FF1204E290003C1206B18071
:401780009D7B007A4079047D037C01123701904004E4F09040047407F0904006E4F09040087448F0904004E4F09040017402F09043A2E0FFEF4407FFEFF09043A1E0FFEFF1
:4017C0004401FFEFF02290003CEFF09000D4E4F09000CFE0FFEF70519058967407F0905897E4F090589EE4F0905B07E0FFEF4418FFEFF0905893E4F0905B88E4F0905B8939
:40180000E4F0905880740AF0905881E4F0905882747AF0905883E4F090588DE4F0904E017414F0904E147401F090003CE0FFEF64016003021902904E007438F0904E0274F6
:4018400006F0904E037408F0904E04E4F0904E05E4F0904E06741FF0904E08E4F0904E09E4F0904E0AE4F09058847414F09058857409F0905886740AF0905887E4F090585B
:40188000887412F09058897413F090588A7455F090588B745AF090588C7405F090588EE4F090588FE4F0905890740AF09058917443F09058927444F09058947458F090582C
:4018C00095E4F090589A7405F090589B7402F090589C7401F090589DE4F07F001235EB7FA07E0F7D007C009000CB1206B17D077F1D12273F7C337D9B7F1D1226A27F1D126C
:40190000236622900058E4F0905120E0FFEF5480FFEFF0905122E0FFEF54F0FF900058EFF0900058E0FFEF440FFF905122EFF0905123E0FFEF54F0FF900058EFF090005836
:40194000E0FF905123EFF0905124E0FFEF54F0FF900058EFF0900058E0FF905124EFF0905120E0FFEF54DFFFEFF0905120E0FFEF4440FFEFF07F007E0012339C905120E04D
:40198000FFEF4410FFEFF07F017E0012339C905121E0FF900058EFF0905120E0FFEF54EFFFEFF0900058E0FFEF5408FF900058EFF0905120E0FFEF4410FFEFF07F017E00B9
:4019C00012339C905120E0FFEF54EFFFEFF0900058E0FFEF709F905120E0FFEF54BFFFEFF0905120E0FFEF5480FFEFF0905122E0FFEF54F0FF900058EFF0900058E0FF90DE
:401A00005122EFF0905123E0FFEF54F0FF900058EFF0900058E0FFEF440FFF905123EFF0905124E0FFEF54F0FF900058EFF0900058E0FFEF440FFF905124EFF0224200C49C
:401A400000004200C200004200C6001B4200BE270F4100CA004100D4004100CF004100D5004400D0000000004400CB00000FA04100E9004100E8004100AB004100AD004183
:401A800000AA004100A30041009F004100A0004400A4000000004100AC034200AEC8C84200A8030344007900000000420089000042008B00004100840042008064644200A9
:401AC0008514144200870A0A420082010143007D0000004100EE004400D6000000004400B5016E36004400B000005DC04100B4184400BA2EE000004100EA004100EBFF432C
:401B0000002F0100854300320100874300270100A84200003A5A4200253A5E4300220100804300390100AE43002A0100A143001F0100A443001C0100794100350542003618
:401B400029F241003802410002024100030241000400410005004100E5004100ED004100ECFF4300DC00000041009D0000E490003DF0900003E0FF90003DE0C39F400302D5
:401B80001C94E490003FF090003EF0900038E0FF90003EE0FEC39F5039900000E0FCA3E02EF582E43CF583E493FF90003DE0FEEFB50617A3E02408F582E43400F583E0FF33
:401BC00090003FE0C39F5002EFF090003EE004F080B990003FE0FF9000271206C990003DE029F9E43AFAEF120409E490003EF0900038E0FF90003EE0FEC39F4003021C8B4A
:401C0000900000E0FCA3E02EF582E43CF583E493FF90003DE0FEEF6E7068A3E02414F582E43400F583E0FD7C0090003EE0FB2408F582E43400F583E0FF90003FE0D39F40EB
:401C40002090003EE0FEEF25E04401FF74082EF582E43400F583EFF0ED25E0FDEC33FC80C8EC600F74142BF582E43400F58374FFF0800F90003EE02414F582E43400F5838A
:401C8000EDF090003EE004F0021BEF90003DE004F0021B722275930078007583467582E8E04401F0009048007480F07581099076BCE4F0A3F0A3F0A3F0907010F090701972
:401CC000F0907020F09076007410F0907604E4F0A3F0A3F0A3F09078007800087400F0A37408F0E8B8040274FFA3F0A37422F0A374BCF0A37476F0A3E4F0A3E81475F00840
:401D0000A4F0A3B804D59070107401F0907014F07E707F18120004907010F0EA9000B9F0020011750820750900120E13122EC4021D6D02135AE493A3F8E493A34003F6805F
:401D400001F208DFF48029E493A3F85407240CC8C333C4540F4420C8834004F456800146F6DFE4800B0102040810204080901A3DE47E019360BCA3FF543F30E509541FFE66
:401D8000E493A360010ECF54C025E060A840B8E493A3FAE493A3F8E493A3C8C582C8CAC583CAF0A3C8C582C8CAC583CADFE9DEE780BE900042EEF0A3EFF090004EE4F0903A
:401DC000004FE4F0900042E0FEA3E0FFC3EF940AEE94004045900042E0FEA3E0FF7C007D0A12042DAF05EF2430FF90004EE0FE74492EF582E43400F583EFF0900042E0FE8C
:401E0000A3E0FF7C007D0A12042D900042EEF0A3EFF090004EE004F080AA900042E0FEA3E0FF7C007D0A12042DAF05EF2430FF90004EE0FE74492EF582E43400F583EFF0D1
:401E400090004EE0FF90004FEFF090004EE0FFEF64FF603E90004EE0FF74492FF582E43400F583E0FF90004EE0FEEEFD7C0090004FE0FEEEFB7A00C3EB9DFDEA9CFC7444E6
:401E80002DF58274003CF583EFF090004EE014F080B890004FE0FF74452FF582E43400F583E4F07B017A007944122E76227F007E007D007C009000E11206B19076007410B7
:401EC000F09070107401F0907019E4F09078027401F090780374A3F07B027A7879007D287C021237037B027A787904C003C002C0017BFF7A3779E3AC02AD01D001D002D030
:401F0000031237037B027A7879067D087C781237037B027A7679047D107C001237037B027A7679067D007C001237039070297409F0907039740CF0907069741BF09070798F
:401F4000741FF09070147401F0907018E0FFEF20E0F7907028E0FFEF20E0F7907038E0FFEF20E0F7907068E0FFEF20E0F7907078E0FFEF20E0F7907010E4F0907020E4F05C
:401F8000907030E4F0907060E4F0907070E4F02290003FEFF0AE03900002E0FCEFC39C400302206B9000447480F0AF0590002A1206C990003FE0FD29F9E43AFAEF1204099D
:401FC0009000391206C9E92DF9E43AFAE4120409AF06900000E0FAA3E02DF582E43AF583E493FE9000271206C9E92EF9E43AFAEF120409900044E0FED39400406E9000395E
:402000001206C990003FE0FF29F9E43AFA1203F0FDEE4D1204091237101237AFEF70FA90001F1206C990003FE075F002A429F9EA35F0FA120498FFD3900043E09F900042B8
:40204000E095F0401C9000391206C990003FE029F9E43AFA1203F0FF900044E0F45F120409900044E0FFC313F08088221234B07F0212341F12379890003CEFF0906493E070
:40208000FFEF4403FFEFF0906494E0FFEF4403FFEFF090003CE0FF1237687B027A6479237D007CB41237037B027A6479437DFF7CFF1237039064857407F012379890003C5B
:4020C000EFF0906497E0FFEF4403FFEFF0906597E0FFEF4403FFEFF090003CE0FF12376890642774FFF090644774FFF090640774FFF090652774FFF090655774FFF090650B
:402100004774FFF07F0E12240F7C257D607F0E1226A27D077F0E12273F1237B77F021230927F031230927F04123092906474E0FFEF4404FFEFF01231E51236852290003D73
:40214000EFF0E0FF2408F582E43400F58374FFF09000391206C9E92FF9E43AFA1203F090003EF090003DE0FF90004274BFF0A374FFF0FB121F9090003DE0903A2093FF7E6B
:4021800000900036E0FCA3E0FD120725C00790003EE0FFFBE4FAF9F8D007120588AD07AC06D3ED9480EC9400401B90003DE02408F582E43400F583E0FFC313F0ECC313FCB3
:4021C000ED13FD80DC90003DE0FE2414F582E43400F583EDF074142EF582E43400F583E0FF1313543FFF740A2EF582E43400F583EFF090001C1206C975F002EEA429F9EA47
:4022000035F0FAE4F5F01204C322900059EFF0906474E0FFEF54FCFFEFF0906517E0FF7E00EF7F00FE900059E0FDED25E024A4F582E43400F583EEF0A3EFF0900059E0FF0B
:40224000EF25E024A4F582E43400F583C083C082E0FEA3E0FF906507E0FD7C00EE4CFEEF4DFFD082D083EEF0A3EFF0900059E0FFEF25E024A4F582E43400F583E0FEA3E0FD
:40228000FFC374FF9FFF74FF9EFE900059E0FDED25E024A4F582E43400F583EEF0A3EFF0900059E0FF1227D47F001233F5905870E0FFEF4401FFEFF0221237A9E490003CBA
:4022C000F0900002E0FE90003CE0FFC39E501C900035E0FD9000427401F0A37480F07B01121F9090003CE004F080D6E490003CF0900038E0FF90003CE0FEC39F503390000D
:40230000391206C9E92EF9E43AFA1203F0FF131313541FFF903A2293FD90002A1206C9E92EF9E43AFAED12040990003CE004F080BF1237A3E490003CF0900002E0FE9000F6
:402340003CE0FFC39E501B90002A1206C9E92FF9E43AFA1203F0FD12213D90003CE004F080D7121B6D2290FFFF120701EFF090FFFE120701850883850982A3A3E0FFEFD358
:40238000941F5003D38001C34025850883850982A3A3E0FFEFD3941F500A7F017E007D007C0080087F007E007D007C00123445850883850982A3A3E0FFEF541FFF7E00EF74
:4023C0007803CEC313CE13D8F9FFEF24C0FFEE3444FE850883850982EEF0A3EFF0850883850982A3A3E0FFEF5407FF7401A807088002C333D8FCFF850883850982E0FCA3B3
:40240000E0FD8D828C83EFF09000031207012290FFFF120701EFF090FFFE120701850883850982A3A3E0FFEFD3941F5003D38001C34025850883850982A3A3E0FFEFD394A1
:402440001F500A7F017E007D007C0080087F007E007D007C00123445850883850982A3A3E0FFEF541FFF7E00EF7803CEC313CE13D8F9FFEF24C8FFEE3444FE850883850924
:4024800082EEF0A3EFF0850883850982A3A3E0FFEF5407FF7401A807088002C333D8FCFF850883850982E0FCA3E0FD8D828C83EFF09000031207012290003EEEF0A3EFF0BF
:4024C000900040ECF0A3EDF07D007F00122C767BFF7A3379E7122E767D0D7F00122C767BFF7A3379F1122E767D007F01122C767BFF7A3379D8122E76900040E0FEA3E0FFB0
:402500007D0A122C7690003EE0FEA3E0FF121DB290003EE0FEA3E0FFC3EF940AEE94005017900040E0FEA3E0FF7D0B122C767BFF7A3379F3122E762290003EE0FEA3E0FFE5
:40254000C3EF9464EE94005016900040E0FEA3E0FF7D0C122C767BFF7A3379F3122E7622C0E0C0F0C083C082C085C084C086758600C093759300C0D075D000C000C001C0E1
:4025800002C003C004C005C006C0079000A3E0FF12220A9000AAE0FFEF5480FF7E00EF4E60109000AAE0FFEF54FEFF9000AAEFF080309000A3E0FF122BB69000A3EFF09021
:4025C00000A3E0FFEFC39402500A9000A3E0FF123295800E9000AAE0FFEF54FEFF9000AAEFF0D007D006D005D004D003D002D001D000D0D0D093D086D084D085D082D08389
:40260000D0F0D0E0329043AAE0FFEF4401FFEFF09043C5E0FFEF4401FFEFF09043BAE0FFEF4401FFEFF09046F5E0FFEF4410FFEFF09046F7E0FFEF4408FFEFF0905891E09A
:40264000FFEF4403FFEFF07F037E0012339C9046F5E0FFEF54EFFFEFF09046F7E0FFEF54F7FFEFF0905877E0FFEF4406FFEFF09043A1E0FFEF4401FFEFF09043B1E0FFEFDC
:402680004401FFEFF012375C9043A2E0FFEF4404FFEFF09043B2E0FFEF4404FFEFF01237502290003DEFF090003EECF0A3EDF090003DE0FFEFD3941F5003D38001C34020F4
:4026C00090003DE0FFEFD3941F500A7F017E007D007C0080087F007E007D007C0012344590003DE0FFEF541FFF7E00EF25E0FFEE33FEEF2400FFEE3444FEAA06A9077B0170
:402700001236F4900040EEF0A3EFF090003DE0FF7E02EF8EF0A4FFAEF0EF2400FFEE3444FEAA06A9077B0190003EE0FEA3E0FFAD07AC06123703900040E0FEA3E0FF22903F
:40274000003DEFF090003EEDF090003EE0FFEFD394075003D38001C3402090003EE0FFEFD39407500A7F017E007D007C0080087F007E007D007C0012344590003DE0FFEFBF
:40278000D3941F5003D38001C3402090003DE0FFEFD3941F500A7F017E007D007C0080087F007E007D007C0012344590003EE0FFEF5407FF7E00EF75F020A4FFAEF0900095
:4027C0003DE0FEEE541FFE74802EF582E43444F583EFF02290005AEFF090005AE0FFEF903A4693FF90005BEFF090005AE0FFEF903A4893FF90005CEFF090005AE0FF122FD3
:402800005B90005BE0FFEFB40F0690005B7407F090005BE0FFEF25E0244AF582E4343AF583E493FE740193FF8F828E83C083C082E0FF90005CE0FEEEF4FEEF5EFFD082D0DE
:4028400083EFF090005AE0FFEF25E02442F582E4343AF583E493FE740193FF8F828E837408F02290005AEFF090005AE0FFEF903A4693FF90005BEFF090005AE0FFEF903AF7
:402880004893FF90005CEFF090005AE0FFEF25E02442F582E4343AF583E493FE740193FF8F828E837409F090005BE0FFEFB40F0690005B7407F090005BE0FFEF25E0244A00
:4028C000F582E4343AF583E493FE740193FF8F828E83C083C082E0FF90005CE0FEEF4EFFD082D083EFF090005AE0FF1230922290003CEFF090003DEDF07D007F00122C7647
:4029000090003CE0FFEF600890003DE0FFEF705790003CE0FFEF700890003DE0FFEF604790003CE0FFEF601B9000C6E0FEA3E0FFC3EF941CEE9400500A9000C6E475F00136
:4029400012048290003DE0FFEF601C9000C6E0FEA3E0FFD3EF9412EE9400400B9000C674FF75F0FF1204829000C6E0FEA3E0FF7D017C001224B82290004AEFF090004AE0C5
:40298000FFEF903A5A93FF90004BEFF090004AE0FFEF25E024A4F582E43400F583E0FEA3E0FF90004AE0FDED25E02479F582E43400F583EEF0A3EFF090004AE0FF74892F4B
:4029C000F582E43400F583E4F090004AE0FF748B2FF582E43400F583E4F090004BE0FF74822FF582E43400F583E0FF90004BE0FE747D2EF582E43400F583EFF0227F287E70
:402A0000007D007C00122A777F03122FA57F057E007D007C00122A777F03122FA57F0F7E007D007C00122A777F03122FA57F017E007D007C00122A777F02122FA57F057E39
:402A4000007D007C00122A777F0612311F7F0E12311F7F2C12311F7F0812311F7F0112311F7F0C12311F7F0312311F7F057E007D007C00122A772290FFFC1207011206B1ED
:402A80007F007E807D007C008508838509821206A5D312064240309000BA120699123000850883850982C083C082120699C3EF9400FFEE9480FEED9400FDEC9400FCD08202
:402AC000D0831206B180B99000B01206998508838509821206A51204FD12300090000412070122906576E0FFEF54C0FF90003CEFF090003CE0FFEF440DFF906576EFF090D3
:402B00006595E0FFEF4401FFEFF0906596E0FFEF4401FFEFF07F107E271236207F107E271236067F7F7E0012363A906586E4F012379890003DEFF0906596E0FFEF4410FF8A
:402B4000EFF090003DE0FF1237681236DD2290003CE4F090003CE0FFEFC39402505790003CE0FFEF131313541FFF90003DEFF090003CE0FFEF5407FF7401A807088002C342
:402B800033D8FCFF90003EEFF090003DE0FF74AC2FF582E43400F583E0FF90003EE0FEEF5EFFEF600890003CE0FF12093190003CE004F0809E22900059EFF0900059E004C6
:402BC000F0900059E0FFEF64026047900059E0FFEF131313541FFF90005AEFF0900059E0FFEF5407FF7401A807088002C333D8FCFF90005BEFF090005AE0FF74AC2FF58215
:402C0000E43400F583E0FF90005BE0FEEF5EFFEF60A9900059E0FF2290003CEFF090003CE0FFEF903A5C93FF90003DEFF090003CE0FFEF903A5E93FF90003DE0FEEF2EFF6A
:402C400090003EEFF090003FE4F090003DE0FF1211B3EF600690003F7401F090003DE004F090003EE0FF90003DE0FEEEC39F40DA90003FE0FF22900042EFF0900043EDF065
:402C8000900042E0FFEF1206DB2C99002CA6012CB3022CC00300002CCC900043E0FFEF2480FF12311F22900043E0FFEF24C0FF12311F22900043E0FFEF2494FF12311F2275
:402CC000900043E0FFEF24D4FF12311F22900057EFF0121903905120E0FFEF4420FFEFF0905120E0FFEF54BFFFEFF0905120E0FFEF54F0FFEFF0905120C083C082E0FF900D
:402D00000057E0FEEE4410FEEF4EFFD082D083EFF07F017E0012339C905120E0FFEF54EFFFEFF02212379890003CEFF0906495E0FFEF4420FFEFF012378C12369C1231A7A5
:402D40009043BBE0FFEF4410FFEFF09043ABE0FFEF4410FFEFF0905870E0FFEF4401FFEFF090003CE0FF1237687F0E122366906474E0FFEF4480FFEFF022905820E0FFEFAA
:402D8000540CFF7E00EEC313FEEF13FF90003EEFF0905821E0FFEF5404FF7E00EF64044E700690003EE004F090003EE0FFE4FCFDFEEF241CFFEE3401FEED340CFDEC34003C
:402DC000FCA907AA06AB05123774904608EFF02290005AEFF090005AE0FFEF903A5A93FF90005BEFF090005AE0FF74AE2FF582E43400F583E0FF1233F590005BE0FF74A80A
:402E00002FF582E43400F583E0FF906457EFF090005AE0FF74A12FF582E43400F583E0FF1235942290003CEFF09000D4E0FFEFB4011E9000CAE0FF90003DEFF090003DE021
:402E4000FFEF6401602A90003CE0FFEF60E48020904E01E0FFEF5401FF90003DEFF090003DE0FFEF6401600890003CE0FFEF60E090003DE0FF229000501206D29000537419
:402E800001F09000501206C91203F0FF900054EFF0900054E0FFEF602A900054E0FF1232CC9000501206C9900053E0FFE92FF9E43AFA1203F0FF900054EFF0900053E00450
:402EC000F080CE229000DA747FF09000DB7480F090003C747FF090003CE0FFEF602190003CE0FFEF14FF90003CE0FE75F008EE9078001206BDEFF090003CE014F080D79007
:402F0000003CE0FF75F008EF9078001206BDE4F02290003FEFF090003FE0FFEFC39402503990003FE0FFEF25E0240BF582E4343AF583E493FE740193FF8F828E83C083C067
:402F400082E0FF90003FE0FEEE903A0F93FEEEF4FEEF5EFFD082D083EFF02290005DEFF090005DE0FFEFC39405503990005DE0FFEF25E02411F582E4343AF583E493FE748E
:402F80000193FF8F828E83C083C082E0FF90005DE0FEEE903A1B93FEEEF4FEEF5EFFD082D083EFF022900046EFF0905120E0FFEF549FFFEFF0905120E0FFEF54F0FFEFF0B1
:402FC000905120C083C082E0FF900046E0FEEE4410FEEF4EFFD082D083EFF07F017E0012339C905120E0FFEF54EFFFEFF0228B938A838982EFF0A3EEF0A3EDF07593002287
:40300000EC4D4E700D78FCEF24E950032840FD22000078C5904800E0C4030354039030479325E0240FF404FBEF28FF78FFEE38FEED38FDEC38FC50D7EF2BFFEE38FEED38EB
:40304000FDEC38FC40F2220603040590003EEFF090003EE0FFEFC39402503690003EE0FFEF25E0240BF582E4343AF583E493FE740193FF8F828E83C083C082E0FF90003EC4
:40308000E0FEEE903A0F93FEEF4EFFD082D083EFF02290005DEFF090005DE0FFEFC39405503690005DE0FFEF25E02411F582E4343AF583E493FE740193FF8F828E83C08378
:4030C000C082E0FF90005DE0FEEE903A1B93FEEF4EFFD082D083EFF02290003DEFF090003DE0FFEF5403FF905842E0FEEE54FCFEEE4FFF905842EFF090003DE0FFEFB40128
:403100000F7B0C7A017912123774904602EFF0227B0C7A0179AD123774904602EFF022900044EFF0900044E0FFEFC4540FFF900045EFF0121903900045E0FFEF540FFF90AD
:403140000045EFF0900045E0FF122FA5900044E0FFEF540FFF900045EFF0900045E0FF122FA522C2D5E830E70FB2D5E4C39BFBE49AFAE499F9E498F8EC30E717B2D512316E
:4031800099120588E4C39BFBE49AFAE499F9E498F8800312058830D50DE4C39FFFE49EFEE49DFDE49CFC2290009FE0FFEF5401FF7E00EF4E601890009FE0FFEF54FEFF90C1
:4031C000009FEFF09000A0E0FF905820EFF09043A8E0FFEF4401FFEFF09043B8E0FFEF4401FFEFF0227F001230D9905842E0FFEF4420FFEFF0905842E0FFEF54FBFFEFF058
:40320000905842E0FFEF4408FFEFF0905AD7E0FFEF54E7FFEFF0905AD7E0FFEF4410FFEFF0229000AAE4F09000A374FFF09000A3E0FF122BB69000A3EFF09000A3E0FFEF25
:40324000C3940250169000AAE0FFEF4401FF9000AAEFF09000A3E0FF12329522904E11E0FF7E0090003CEEF0A3EFF090003CE0FEA3E0FFEF7F00FE904E10E0FD7C00EE4C8C
:40328000FEEF4DFF90003CEEF0A3EFF090003CE0FEA3E0FF22900059EFF0900059E0FF122DD0906474E0FFEF4401FFEFF0905870E0FFEF54FEFFEFF0900059E0FF122863A8
:4032C000906474E0FFEF4402FFEFF022900055EFF0121903900055E0FFEFC4540FFF900056EFF0900056E0FF122CCD900055E0FFEF540FFF900056EFF0900056E0FF122C15
:40330000CD2290511D7404F090512D7480F09051CD74AAF0905870E4F0905A207409F0905AD37420F0905B007404F0905B587404F09058767444F022758600EF4E6027EFD2
:4033400060010E759300900048E0F595A3E0F585A3E0F5848B938A838982E0A30586F0A31586DFF6DEF4E4F593F5952290003DEFF0905820E0FFEF54F3FFEFF0905820C0FB
:4033800083C082E0FF90003DE0FEEE540CFEEF4EFFD082D083EFF0122D7A2232EEFA9000B4E0F88FF0A4FFAEF0E88AF0A42EFEE5F03400FDEF24C9FF78FFEE38FEED38FD11
:4033C000E438FC50030230002254454D50204E4F573A20202020430054454D50205345543A20202020430054454D50204E4F573A004300200090005CEFF012379890005D08
:40340000EFF090005CE0FF905B80EFF090005CE0FF905B80EFF090005DE0FF1237682290003DEFF090003DE0FFEFB4010C906474E0FFEF54EFFFEFF022906474E0FFEF44E9
:4034400010FFEFF02290FFFF120701EFF0850883850982E0FF850883850982EFF09046EA7401F0900001120701227F011217C67F101235137F101234F2900041740CF07BEA
:40348000007A807DB67C8D7F00120BF922900046EFF09000AAE4F0900046E0FF9000A3EFF09000AA7481F0900046E0FF1232952290003DE4F090003DE0FFEFC394025010D1
:4034C00090003DE0FF1227D490003DE004F080E52290003CE4F090003CE0FFEFC39402501090003CE0FF1235CF90003CE004F080E52290003CEFF090408AC083C082E0FFA7
:4035000090003CE0FEEE54F8FEEF4EFFD082D083EFF02290003CEFF0904102C083C082E0FF90003CE0FEEE54F8FEEF4EFFD082D083EFF02290003EE4F090003EE0FFEFC320
:403540009402501090003EE0FF122F1190003EE004F080E52290003DE4F090003DE0FFEFC39405501090003DE0FF122F5B90003DE004F080E5229000ADE0FFEF700912200F
:403580006C9000AD7401F0122D241237B39000AB7401F02290005CEFF090005CE0FF906425EFF090005CE0FFEFC313FF906435EFF0229000CFE0FFEF70119000D5E0FFEFB4
:4035C000700312346A9000CF7401F01226052290003DEFF090003DE0FF12348D12366DEF70FA90003DE0FF1229772290003DEFF012353490003DE0FF12304B90003DE0FFC0
:403600009000EBEFF02290003EEEF0A3EFF07B027A65790590003EE0FCA3E0FD1237032290003EEEF0A3EFF07B027A65794590003EE0FCA3E0FD1237032290003EEEF0A33F
:40364000EFF07B027A65792590003EE0FCA3E0FD12370322EC4D6011ED60010C8B938A838982E4F0A3DDFCDCFA759300229000AAE0FFEF5401FF7E00EF64014E70047F01DF
:4036800080027F00229058207410F09058217402F07F0412336C7F001233F5229043A7E0FFEF4402FFEFF09043B7E0FFEF4402FFEFF0229000E8E0FFEF70091229FD90005C
:4036C000E87401F0123738229000EEE0FFEF7009122AE39000EE7401F012374422906566E0FFEF30E40B7B027A6579551236F480EC228B938A838982E0FFA3E0FE7593008A
:40370000228B938A838982EDF0A3ECF075930022900045EFF0900045E0FF12348D2290004AEFF090004AE0FF120FE522904E00E0FFEF4401FFEFF0227F0C12311F9000E95D
:403740007401F022906576E0FFEF4480FFEFF0229043A2E0FFEF4404FFEFF0229043A1E0FFEF4401FFEFF022EF54016004D2AF8002C2AF228B938A838982E0759300FF2236
:403780008B938A838982EDF0759300229043A2E0FFEF4401FFEFF0227F0010AF012274014FFF227F0212341F227F0112341F2212366D221222B922123555223232320100B4
:4037C00000000000000001000000000001000100000008000000010000000800010001000000010008230237BE76080008230337C676100008230437CE7628000823053728
:40380000D676300005230637DE70200005230737DE70300005230837DE7060000523FF37DE70700040220A00E151300010220B00E151C0001022FF00E151F00280220D0023
:40384000E100000080220E00E106000180220F00E108000180221000E10A000180221100E10C000200221200E10E000080221300E114000380221400E1180001002215003D
:40388000E140000080221600E143000080221700E145000080221800E147000100221900E148000080221A00E14C00008022FF00E14D000040231C038864000020231D035C
:4038C000C864700040231E03E86500002023FF04286570000823200000510000802321000802800080232200880400008023230108048000802324018806800080232502EA
:40390000081480008023260288160000802327030816800080232804484D800080232904C84C800080232A054847800080232B05C846000080232C064846800080232D0654
:40394000C845800080232E074844000080232F07C844800080233008481B800080233108C8150000802332094815800080233309C81700008023340A481780008023350A5F
:40398000C80980008023360B480700008023370BC80780008023380C480B80008023390CC805000080233A0D4805800080233B0DC80D800080233C0E4803000080233D0EC3
:4039C000C803800080233E0F4849000080233F0FC8498000802340104843800080234110C8420000802342114842800080234311C8410000802344124841800010234512F1
:403A0000C85010001023FF12D850005B035B034040510C510C512C5AD35A834020800110020201010101010102020202020303030303030404040404040505050505050622
:403A4000060650065005000040205206520E5216521E5226522E5236527E00010001010100000000000000000000000000000000000000000000000000000000000000004B
:403A80000000000000000000000000000000000000000000000000000000000000000000000000000000000000000000000000000000000000000000000000000000000006
:403AC00000000000000000000000000000000000000000000000000000000000000000000000000000000000000000000000000000000000000000000000000000000000C6
:403B00000000000000000000000000000000000000000000000000000000000000000000000000000000000000000000000000000000000000000000000000000000000085
:403B40000000000000000000000000000000000000000000000000000000000000000000000000000000000000000000000000000000000000000000000000000000000045
:0200000480007A
:400000000000003000000000000000000000000000000000000000000000000000000000000000000000000000000000000000000000000000000000000000000000000090
:400040000000000000000000010300000000000000FFFFFF020CF80000000000000000000000040000000000000048A100000000F000F000F000F0000000000000000000CC
:4000800000000000000000001E00010617000800000000080000051000010000200000000D001220000000100000000000100000100102000004200803010402180C2030A2
:4000C0000002000000000050050300000000A00000FFFFFF030CF40000000000000008000404040C00000000000048A100000000F000F000F000F00000000000000000003D
:400100000000000000000000E900160000000000DF0020007E00810001008000FF000000000000000000600000006000F700080002001000040010000F003000400080005E
:400140000000000000000000610000000000405238FFFFFF022000050010000000000200040004040000090040408000800080000000000000000000000000000000000009
:40018000000000000000000000000000000000000000000000000000000000000000000000000000000000000000000000000000000000000000000000000000000000003F
:4001C000000000000000000065040000002626623F0000000000000000000000000000000000040000000000000CF00C000C000C404C404C9058000C000000000000000079
:4002000000000000000000000000000000000000000000000000000000000000000000000000000000000000000000000000000000000000000000000000000000000000BE
:400240000000000000000000200400000000000000FFFFFF00A00004180000000000000000000400000100004000C0004040C000C000C000C000C00000000000000000005C
:4002800000000000000000000418000300100004030000C000060011010000C00207000800C000000000033F004000000001001200C0000000800000031F042000C00000C4
:4002C00000800000000005103004000000D022103FFFFFFF00AF0F04180000002500000004040404101100004000C0004040C000C000C000C000C000000000000000000087
:4003000000000000000000000006001107600800200080601801031206181103E01000040107120860000060001FE0001020040000000080C04000001F1F60E08000000050
:4003400000200000000014143601000000026000090000000000000000000000000000000404040011000000000CF00C000C000C404C404C9058000C00000000000000004A
:4003800000000000000000000000000000FF00FF000000000000000000000000000000FF000000000000000000000000000000FF0000000000000000000000000000000041
:4003C00000000000000000000000000000000000000000000000000000000000001F0000000000000000000000000000000000FF000000000000000000000000000000FFE0
:40040000000000000000000000000000000000FF000000000000000000000000000000000000000000000000000000000000000000000000000000000000000000002D0090
:40044000000000000000000000000000000000000000000000000000000000000000000000000000000000000000000000000000000000000200000000000000000000007A
:40048000000000000000000000000000000000000000000000000000000000000000000000000000000000000000000000000000000000000000000000000000000000003C
:4004C00000000000000000000000000000000000000000000000000000000000000000000000000000000000000000000200000000000000000000000000000000000000FA
:4005000000000000000000000000000000000000000000000000000000000000000000000000000000000000000000000000000000000000000000000000000000000000BB
:400540000000000000000000000000000000000000000000000000000000000000000000000000000000000000000000020000000000000000000040000000000000000039
:40058000000000000000000000000000000000000000000000000000000000000000000000000000000000000000000000000000000000000000000000000000000000003B
:4005C00000000000000000000000000000000000000008000000000000000000000000000000000000000000000000000000000000000000000000000000000000000000F3
:4006000000000000000000000000000000000000000000000000000000000000000000000000000000000000000000000000000000000000000000000000000000000000BA
:400640000000000000000040000000000000040000000000000000000000000000000000000000000000000000000000020000001000000000000000000000000000000024
:400680000000000000000000000002000000000000000000000000000000000000000000000000000000010000000000000000000000000000000000000000000000000037
:4006C00000000000000000000000000000000000000000000000000000000000100000000000000000000000000000000200000000000000000000000000000000000004E4
:4007000000000000000000000000000000000000000000000000000000000000000000000000000000000000000000000000000000000000080000000000000000000000B1
:400740000000000000000000000000000000000000000000000000000000000000000000000000000000000000000000000000000000000000000000000000000000000079
:400780001000000000000000000000000000000400000000000000000000000000000000000000000000000000000000000000000000000000000000000000000200000023
:4007C00000000000000000000000000000000000000000000000000000000000000000000000000000000000000000000000000000000000000000000000000000000000F9
:4008000000000000000000000000000000000000000000000000080001000000000000000000000000000400000000000000000000000000000000000000000000000000AB
:400840000000000000000000000000000000000000000000000000000000000000000000000000000000000000000000000000000000000000000000000000000000000078
:400880000000000000000000000000000000000000000000000000000000000000000000000000000000000000000000000000000800000000000000000000000000000030
:4008C00000000000000000000000000000000000000000000000000000000000000000000000000000000000000000000000000000000000000000000000000000000000F8
:400900000000000000000000000000000000801000000000000000000000000000000000000000000000000000000000000000000000000000000000000000000000000027
:40094000000000000000000000000000000000000000000000000000000000000000000000008010000000000000000000000000000000000000000800000080004010000F
:40098000000000000000000000000000000000000000000000000000A00000000000000000000000000000000000000000000000080000000000200000000000000000006F
:4009C00000000000000000000004050001142000005040200000A20000000206000000001021000000000006000000580104009400910020108020402A8000000010044296
:400A00002A8000002000400A0620000400048000100000100401080C100000000A2081010000000004010040000000000080000A0000000021345800000000000000004043
:400A40001010000000008040120000000000000000000000000000000000002200000000001404020020000000C0DB2000000002000000000000000000000000000000006B
:400A800000000000000000005700BF000D0000000000FF00FF00FF00CA0004000000D000200000000000000000000000000000000000000000000000000000000000000058
:400AC00000000000000000000000000000000000000000000000000000000000000000000000000000000000000000000000000000000000000000000000000000000000F6
:400B000000000000000000000000000000000000000000000000000000000000000000000000000000000000000000000000000008000000000000000000000000000000AD
:400B40000000000000000000000000000000000000000000000000000000000000000000000000000000000000000000000000000000000000000000000000000000000075
:400B8000000000000000000000000002000000000120D0000000000000400721000000000000000000000000000000000000000000000000000000000000000000000000DA
:400BC0000000000000000000000000000000000000000000000000000000002000800000001400020000050001C0090000000000000000000000802C024800080000000072
:400C000000000000000000000000000000000000000000000000000001000C000000000000000000000000000000000000000000080000000000000000000000000000009F
:400C40000000000000000000000000000000000000000000000000000000000000000000000000000000000000000000000000000000000000000000000000000000000074
:400C8000000000000000000000000000000000000000000000000000000000000000000000000000000000000000000000000800000000000100000000000000000000002B
:400CC0000000000000000000000A00015100000000000410020000220010008010008500008A0519512002940201009800000000004014000000000000B20080000000006B
:400D000020820000000000000000000802000000008000000800000010000000080210008000084000000202000C0800100000200010002100000000004000000200004092
:400D400080000000000000080000000000000400000000000000000000000000000001000000000000040000000000000000000800040000000000000000000000000000D6
:400D80000000000000000000DD00B600F300000000000E000D000D001200280000000200020000000000280000000000000008000000000001000000000000000000000016
:400DC00000000000000000000000000000000000000000000000000000000000000000000000000000000000000000000000000000000000000000000000000000000000F3
:400E000000000000000000000000000000000000000000000000000000000000000000000000000000000000000000000000000000000000100000000000000000000000A2
:400E40000000000000000000000000000000000000000000000000000000000000000000000000000000000000000000000000000000000000000000000000000000000072
:400E80000000000000000000000001080000000000000000000000000000000000000000000000000000000000000000000000000000000000000000000000000000000029
:400EC00000000000000000000000000000000000000000000000000000000000000000000000000000000000000000000000000000000000000000000000000000000000F2
:400F00000000000000000000000000000000000000000000000000000A00000000000000000000000000000000000000000000000000000010000000000000000000000097
:400F40000000000000000000000000000000000000000000000000000000000000000000000000000000000000000000000000000000000000000000000000000000000071
:400F80000000000000000000000000000000000000000000000000000000000000000000000000010000000000000000000000000000000000000000000000000000000030
:400FC00000000000000000000000000000000000000000000000000000000000000000000000000100000000000000000000000000000000000000000000000100000000EF
:401000000000000000000000000000000000000000000000000000000000000000004000000000000000000000000000000000000000000000000000000000000000000070
:401040000000000000000000000000000000000000000000000000000000000000000000000000000000000000000000000000000000000000100000000000000000000060
:401080000000000000000000000010000000000000000000000000000000000000000000000000000000000000000000000000000000000000001000000000000000000010
:4010C00000000000000000000000000000000000000000000000000000000000000000000000000000000000000000000000000000000000000000000000000000000000F0
:40110000001000000000000000000000000000000000000000000000000000000000000000000000000000000000000000000000000000000000000000000000000000009F
:40114000000000000000000000000000000000000000000000000000000000000000000000000000000000000000000000000000000000000000000000000000000000006F
:40118000000000000000000000000000000000000000000000001000000000000000000000000000000000000000000000000000000000000000000000000000000000001F
:4011C00000000000000000000000000000000000000000000000000000000020000000000000000000000000000000000000000000000000000000000000000000000000CF
:4012000000000000000000000000000000000000000000000000000000000000000000000000000000000000000000000000000000000000000000000000000000000000AE
:40124000000000000000000000000000000000000000000000000000000000000000000000000000000000200000000000000000000000000000000000000000000000202E
:4012800000000000000000000000000040000000000000000000000000000000000000000000000000000000000000000000000000000000000000000000000000000000EE
:4012C0000000000000000000030000000000000000000300000000000100000000000000010001000000000000006000000000000040400040000400007F7F000000800043
:4013000000000000000060005D00180100000000000000000000000000000000000000000000000000000000000000000000000000000000000000000000000000000000D7
:40134000000000000000000000000000000000000000000000000000000000000000000000000000000000000000000000000000000000000000000000000000000000006D
:40138000000000000000000000000000000000000000000000000000000000000000000000000000000000000000000000000000000000000000000000000000000000002D
:4013C00000000000000000000000000000000000000000000000000000000000000000000000000000000000000000000000000000000000000000000000000000000000ED
:4014000000000000000000000000000000000000000000000000000000000000000000000000000000000000000000000000000000000000000000000000000000000000AC
:0200000490006A
:0400000000000005F7
:0200000490105A
:04000000AFAC90BC55
:0200000490303A
:02000000C9B085
:0200000490501A
:0C00000000010E02806901010E204A1967
:0200000490402A
:4000000000000000000000000000000000000000000000000000000000000000000000000000000000000000000000000000000000000000000000000000000000000000C0
:00000001FF
