:400000000214C8008F828E83E0540100000070F82278FFE4F6D8FD021556BB010689828A83E0225002E722BBFE02E32289828A83E49322BB010689828A83F0225002F7226F
:40004000BBFE01F322EF8DF0A4A8F0CF8CF0A428CE8DF0A42EFE22BC000BBE0029EF8DF084FFADF022E4CCF875F008EF2FFFEE33FEEC33FCEE9DEC984005FCEE9DFE0FD530
:40008000F0E9E4CEFD22EDF8F5F0EE8420D21CFEADF075F008EF2FFFED33FD4007985006D5F0F222C398FD0FD5F0EA22C5F0F8A3E028F0C5F0F8E582158270021583E038AF
:4000C000F022BB010A89828A83E0F5F0A3E022500687F009E71922BBFE07E3F5F009E3192289828A83E493F5F074019322BB010A89828A83F0E5F0A3F0225006F709A7F01C
:400100001922BBFE06F3E5F009F31922EF2BFFEE3AFEED39FDEC38FC22C3EF9BFFEE9AFEED99FDEC98FC22E88FF0A4CC8BF0A42CFCE98EF0A42CFC8AF0EDA42CFCEA8EF03F
:40014000A4CDA8F08BF0A42DCC3825F0FDE98FF0A42CCD35F0FCEB8EF0A4FEA9F0EB8FF0A4CFC5F02ECD39FEE43CFCEAA42DCE35F0FDE43CFC2275F008758200EF2FFFEE12
:4001800033FECD33CDCC33CCC58233C5829BED9AEC99E58298400CF582EE9BFEED9AFDEC99FC0FD5F0D6E4CEFBE4CDFAE4CCF9A88222B800C1B90059BA002DEC8BF084CF9D
:4001C000CECDFCE5F0CBF97818EF2FFFEE33FEED33FDEC33FCEB33FB10D703994004EB99FB0FD8E5E4F9FA227818EF2FFFEE33FEED33FDEC33FCC933C910D7059BE99A4094
:4002000007EC9BFCE99AF90FD8E0E4C9FAE4CCFB2275F010EF2FFFEE33FEED33FDCC33CCC833C810D7079BEC9AE899400AED9BFDEC9AFCE899F80FD5F0DAE4CDFBE4CCFAC3
:40024000E4C8F922EF5BFFEE5AFEED59FDEC58FC22EF4BFFEE4AFEED49FDEC48FC22EB9FF5F0EA9E42F0E99D42F0E89C45F022E8600FECC313FCED13FDEE13FEEF13FFD8E9
:40028000F122E8600FEFC333FFEE33FEED33FDEC33FCD8F122BB010789828A830202B55005E9F8020525BBFE05E9F802053189828A8302053DE0FCA3E0FDA3E0FEA3E0FF26
:4002C00022E0F8A3E0F9A3E0FAA3E0FB22ECF0A3EDF0A3EEF0A3EFF022A42582F582E5F03583F58322E0FBA3E0FAA3E0F922EBF0A3EAF0A3E9F022D083D082F8E49370127F
:40030000740193700DA3A393F8740193F5828883E4737402936860EFA3A3A380DFE5092582F582E5083583F583B508048582092210AF06858209F50822858209F508D2AFE0
:4003400022EC8EF0A4CCC5F0CCCDF8EFA4CEC5F02DFDE43CFCE8A42EC8C5F03DFDE43CFCEFA4FFE5F028FEE43DFDE43CFC22E709F608DFFA8046E709F208DFFA803E888251
:400380008C83E709F0A3DFFA8032E309F608DFFA806EE309F208DFFA806688828C83E309F0A3DFFA805A89828A83E0A3F608DFFA804E89828A83E0A3F208DFFA804280D2BD
:4003C00080FA80C680D4805580F28029801080A680EA809A80A880DA80E280CA802988848C8589828A83E493A30586F0A30586DFF5DEF3800B89828A83E493A3F608DFF9B8
:40040000ECFAA9F0EDFB2288848C8589828A83E0A30586F0A30586DFF6DEF480E389828A83E493A3F208DFF980D688F0EF60010E4E60CD88F0ED2402B4040050C3F582EB65
:400440002402B4040050B923234582239003BE73E709F60870FA8046E709F20870FA803E88828C83E709F0A370FA8074E309F60870FA806CE309F20870FA806488828C83EA
:40048000E309F0A370FA805889828A83E0A3F60870FA804C89828A83E0A3F20870FA804080D280FA80C680D4805180F28027801080A680EA809A80A880DA80E280CA80278E
:4004C00088848C8589828A83E493A30586F0A3058670F5800B89828A83E493A3F60870F9ECFAA9F0EDFB2288848C8589828A83E0A30586F0A3058670F680E589828A83E4CA
:4005000093A3F20870F980D888F0ED2402B4040050CEF582EB2402B4040050C423234582239004A073E6FC08E6FD08E6FE08E6FF22E2FC08E2FD08E2FE08E2FF22E493FC4B
:40054000740193FD740293FE740393FF229000CEEFF09000CEE0FFEF9032D093FF9000D7EFF09000D7E0FF748B2FF582E43400F583E0FF9000D8EFF09000CEE0FFEF25E09F
:4005800024ACF582E43400F583E0FEA3E0FF9000D5EEF0A3EFF09000CEE0FF122FC89000CEE0FFEF25E02473F582E43400F583E0FEA3E0FF9000D5E0FCA3E0FDC3ED9FECCE
:4005C0009E40359000CEE0FFEF25E02473F582E43400F583E0FEA3E0FF9000D5E0FCA3E0FDC3ED9FFFEC9EFE9000D3EEF0A3EFF09000D77401F080329000CEE0FFEF25E0B0
:400600002473F582E43400F583E0FEA3E0FF9000D5E0FCA3E0FDC3EF9DFFEE9CFE9000D3EEF0A3EFF09000D7E4F09000D7E0FFEF70599000D3E0FEA3E0FFD3EF9414EE947A
:400640000040489000CEE0FF746C2FF582E43400F583E0FFEFC39405401C9000CEE0FF12213B9000CEE0FF746C2FF582E43400F583E4F00207A79000CEE0FF746C2FF582D4
:40068000E43400F583E004F00207A79000D8E0FF7E009000D3E0FCA3E0FDD3ED9FEC9E401F9000D3E0FEA3E0FFC3EF9414EE940040030207A79000D7E0FFEF60030207A780
:4006C0009000CEE0FFEF25E02473F582E43400F583E0FEA3E0FFE4FCFD78081202829000CF1202CD9000CF1202C19000CEE0FF74912FF582E43400F583E0FFE4FCFDFE1220
:4007000002519000CF1202CD9000CF1202C19000D5E0FEA3E0FFE4FCFD12010C9000CF1202CD9000CF1202B5C004C005C006C0079000CEE0FFEF25E02473F582E43400F567
:4007400083E0FEA3E0FFAB07AA06E4F9F8D007D006D005D0041201199000CF1202CD9000CF1202B5780812026F9000CEE0FDED25E02473F582E43400F583EEF0A3EFF090B7
:4007800000CF1202B59000CEE0FE74912EF582E43400F583EFF09000CEE0FF746C2FF582E43400F583E4F09000D8E0FF7E009000D3E0FCA3E0FDD3ED9FEC9E40469000D7CB
:4007C000E0FFEF603E9000D3E0FEA3E0FFD3EF94FFEE940040139000CEE0FF749B2FF582E43400F58374FFF0229000D3E0FEA3E0FF9000CEE0FE749B2EF582E43400F58356
:40080000EFF0229000CEE0FF749B2FF582E43400F583E4F0229000D1EFF09000D2EDF09000D3EBF09000D2E0FF749B2FF9E43400FA7B019000E21202EE9000D1E0FFEF14C5
:40084000FF9000D7EFF09000D1E0FFEF04FF9000D8EFF09000E21202E59000D1E0FFE92FF9E43AFA12001AFF900099EFF09000D1E0FFEF7021900098E4F09000E21202E58C
:400880009000D8E0FFE92FF9E43AFA12001AFF90009AEFF080739000D3E0FF7E00EF24FFFFEE34FFFE9000D1E0FD7C00EFB50525EEB504219000E21202E59000D7E0FFE9C7
:4008C0002FF9E43AFA12001AFF900098EFF090009AE4F080349000E21202E59000D7E0FFE92FF9E43AFA12001AFF900098EFF09000E21202E59000D8E0FFE92FF9E43AFAED
:4009000012001AFF90009AEFF09000D6E0FF900098E0FEEED39F4015900098E0FF9000D6E0FEC3EF9EFF900098EFF08005900098E4F0900099E0FF9000D6E0FEC3EF9EFFC6
:40094000900099EFF09000D6E0FF90009AE0FEEED39F401590009AE0FF9000D6E0FEC3EF9EFF90009AEFF0800590009AE4F0900098E0FFAB07E4FAF9F890009AE0FFE4FCD4
:40098000FDFE1201199000DA1202CD900099E0FFAB07E4FAF9F8900098E0FFE4FCFDFE12010CA804A905AA06AB0790009AE0FFE4FCFDFE12010C9000DE1202CD9000DA12B1
:4009C00002B578081202829000DE1202C1122AACC004C005C006C0079000D1E0FF7E00EF7F00FEAB07AA06E4F9F8D007D006D005D00412010C9000DE1202CD9000DE120242
:400A0000C19000D4E0FEA3E0FFE4FCFD1201279000DE1202CD9000DE1202B5EF2400FFEE347FFEED3400FDEC3400FC781012026F9000D9EFF09000D9E0FF22904800748020
:400A4000F0907010E4F0907020E4F07B007A4679E8123006EF4401FD7B007A4679E81230121217ED7B087A107990C003C002C0017B007A5279009000CD1202EED001D00275
:400A8000D0037F077E00122C8C7B087A107998C003C002C0017B007A5279089000CD1202EED001D002D0037F077E00122C8C7B007A5279107D077C00122EEC7B007A52790A
:400AC000187D077C00122EEC7B007A5279207D077C00122EEC7B007A5279287D077C00122EEC7B007A5279307D077C00122EEC7B007A5279607D067C00122EEC7B007A52E4
:400B000079787D077C00122EEC7B007A5879707D007C03122FAB7B007A5879487D037C00122FAB7B017A507903123006EF4402FD7B017A5079031230127B017A507913124E
:400B40003006EF4402FD7B017A5079131230129043A0E0FFEF4440FF9043A0EFF09043C2E0FFEF4410FF9043C2EFF07B087A107978C003C002C0017B007A5179029000CD45
:400B80001202EED001D002D0037F087E00122C8C7B087A107980C003C002C0017B007A5179129000CD1202EED001D002D0037F087E00122C8C7B087A107988C003C002C0DA
:400BC000017B007A5179229000CD1202EED001D002D0037F087E00122C8C9044F47401F0904800E4F01215E59048007440F0122D9C7B007A4379A0C003C002C0017B007AA7
:400C00004379B09000CD1202EED001D002D0037F0C7E00122C8C9043B0E0FFEF54FDFF9043B0EFF0229000CFEFF09000CFE0FFEF131313541FFF9000D1EFF09000CFE0FFE7
:400C4000EF5407FF7401A807088002C333D8FCFF9000D2EFF09000CFE0FFEF9032D093FF9000D3EFF09000D3E0FF74842FF582E43400F583E0FF9000D4EFF09000D3E0FF0C
:400C8000748E2FF582E43400F583E0FF9000D5EFF09000D3E0FF74872FF582E43400F583E0FF9000D6EFF09000D3E0FFEFC39401501A9000D07402F09000D0E0FF74812F26
:400CC000F582E43400F5837401F0800D9000D3E0FFEF14FF9000D0EFF09000D1E0FF748A2FF582E43400F583E0FF9000D2E0FEEF5EFFEF60659000D5E0FF9000D4E0FEC39C
:400D0000EE9FFF9000CFE0FE749B2EF582E43400F583E0FEEEC39F4003020DD19000D1E0FF748A2FF582E43400F583C083C082E0FF9000D2E0FEEEF4FEEF5EFFD082D0836C
:400D4000EFF09000D6E0FF9000D0E0FE74812EF582E43400F583EFF080779000D5E0FF9000D4E0FEEE2FFF9000CFE0FE749B2EF582E43400F583E0FEEED39F403E9000D0D2
:400D8000E0FF74812FF582E43400F583E0FF14F0EFD39401503B9000D1E0FF748A2FF582E43400F583C083C082E0FF9000D2E0FEEF4EFFD082D083EFF080169000D6E0FFB1
:400DC0009000D0E0FE74812EF582E43400F583EFF09000D1E0FF748A2FF582E43400F583E0FF9000D2E0FEEF5EFFEF60047F0180027F00229000DAEFF0E0FF900000E0FC43
:400E0000A3E02FF582E43CF583E4939000DBF0120FC29000DBE0245CF582E43400F583E0FF14F0EF6003020F0F9000DBE0FF2445F582E43400F583E0FE9000511202E5E9BA
:400E40002FF9E43AFAEE1200339000DBE0FF2448F582E43400F583E0FE90005F1202E5E92FF9E43AFAEE1200339000511202E59000DBE0FF29F9E43AFA12001AFEC313FEC4
:400E800090005F1202E5E92FF9E43AFA12001AC39E40149000DBE090005F1202E5E92FF9E43AFAEE1200339000DBE0FF900054E0FCA3E02FF582E43CF583E493FE745C2F72
:400EC000F582E43400F583EEF09000511202E59000DBE0FF29F9E43AFA12001AFE1313543FFE9000621202E5E92FF9E43AFAEE1200339000DBE0FF2445F582E43400F583CD
:400F000074FFF074482FF582E43400F583E4F09000DAE0FF2414F582E43400F583E0FE25E0FE74372FF582E43400F583E0FFD39E40219000DBE0FD2445F582E43400F583D5
:400F4000E0D39F402D74452DF582E43400F583EFF0801F9000DBE0FF2445F582E43400F583E0D39E400C74452FF582E43400F583EEF09000DAE0FF2414F582E43400F5839B
:400F8000E0FEC313FDEE2DFE74372FF582E43400F583E0FF1313543FFFEEC39F5002AE079000DBE0FF2448F582E43400F583E0FDEED39D400C74482FF582E43400F583EE74
:400FC000F0229000DCEFF090004E1202E59000DCE0FF75F002A429F9EA35F0FA1200C2FD9000DDE5F0F0A3EDF075F002EF90001B1202D9E0FEA3E0FF9000DDE0FCA3E0FDA2
:40100000C3EF9DFFEE9CFE9000DCE0F975F0029000291202D9E0FAA3E0C39DFDEA9C6EFCED6FEC20E70302112DEF4E700302112D75F002E99000291202D9E0FCA3E0FDC347
:401040009000DEE09DFF9000DDE09CFE75F002E990001B1202D9E0FCA3E0FD75F002E99000291202D9ECF0A3EDF0C3EE648094805007C3E49FFFE49EFE7E009000DCE0F981
:401080002437F582E43400F583E0FDC313FDC3EF9D7480F898400302112D741429F582E43400F583E0FDD3EF9D74809840329000DCE0FD243EF582E43400F583E4F07437A5
:4010C0002DF582E43400F583E0FD131313541F04FD741429F582E43400F583E02DF0804D741429F582E43400F583E06F7001EE603C743E29F582E43400F583E0C3940A503B
:401100000F743E29F582E43400F583E004F0801D9000DCE0FF243EF582E43400F583E4F074142FF582E43400F583E014F09000DDE0FEA3E0FF9000DCE075F00290001B12E6
:4011400002D9EEF0A3EFF0229000D7E4F0905120E0FFEF5480FFEFF0905122E0FFEF54F0FF9000D7EFF09000D7E0FFEF440FFF905122EFF0905123E0FFEF54F0FF9000D717
:40118000EFF09000D7E0FF905123EFF0905124E0FFEF54F0FF9000D7EFF09000D7E0FF905124EFF0905120E0FFEF54DFFFEFF0905120E0FFEF4440FFEFF07F007E00122D54
:4011C00020905120E0FFEF4410FFEFF07F017E00122D20905121E0FF9000D7EFF0905120E0FFEF54EFFFEFF09000D7E0FFEF5408FF9000D7EFF0905120E0FFEF4410FFEF73
:40120000F07F017E00122D20905120E0FFEF54EFFFEFF09000D7E0FFEF709F905120E0FFEF54BFFFEFF0905120E0FFEF5480FFEFF0905122E0FFEF54F0FF9000D7EFF09002
:4012400000D7E0FF905122EFF0905123E0FFEF54F0FF9000D7EFF09000D7E0FFEF440FFF905123EFF0905124E0FFEF54F0FF9000D7EFF09000D7E0FFEF440FFF905124EF3A
:40128000F022E49000CCF0900003E0FF9000CCE0C39F40030213A9E49000CEF09000CDF0900068E0FF9000CDE0FEC39F5039900000E0FCA3E02EF582E43CF583E493FF902D
:4012C00000CCE0FEEFB50617A3E0240DF582E43400F583E0FF9000CEE0C39F5002EFF09000CDE004F080B99000CEE0FF9000561202E59000CCE029F9E43AFAEF120033E404
:401300009000CDF0900068E0FF9000CDE0FEC39F40030213A0900000E0FCA3E02EF582E43CF583E493FF9000CCE0FEEF6E7068A3E02437F582E43400F583E0FD7C00900015
:40134000CDE0FB240DF582E43400F583E0FF9000CEE0D39F40209000CDE0FEEF25E04401FF740D2EF582E43400F583EFF0ED25E0FDEC33FC80C8EC600F74372BF582E43484
:4013800000F58374FFF0800F9000CDE02437F582E43400F583EDF09000CDE004F00213049000CCE004F0021287224100BE004100C0004100BD004100AB004100A200410002
:4013C000A3004E00AC00000000000000000000000000004100BF7F4700C1C8C8C8C8C8C8C84300BA0303034E007300000000000000000000000000004700910000000000B2
:40140000000047009B0000000000000041008A0043008464646443008B14141443008E000A0A43008701010143008100000041013600410135004101390043005F01008BF4
:4014400043006201008E4300560100BA42000032D042005433014300510100844300690100C14300590100A443004E0100AC43004B0100734100650542006629F2410068B7
:4014800007410002074100030341000400410005004101320041013800410137FF4401230000000044011A016E360044011500005DC04101191844011F2EE000004301296E
:4014C000000000410113000075930078007583467582E8E04401F0009048007480F07581099076BCE4F0A3F0A3F0A3F0907010F0907019F0907020F09076007410F0907642
:4015000004E4F0A3F0A3F0A3F09078007800087400F0A37408F0E8B8040274FFA3F0A37422F0A374BCF0A37476F0A3E4F0A3E81475F008A4F0A3B804D59070107401F090BA
:401540007014F07E707F18120004907010F0EA90011EF0020011750820750900120A3B1228430215A0022525E493A3F8E493A34003F68001F208DFF48029E493A3F8540705
:40158000240CC8C333C4540F4420C8834004F456800146F6DFE4800B01020408102040809013AAE47E019360BCA3FF543F30E509541FFEE493A360010ECF54C025E060A833
:4015C00040B8E493A3FAE493A3F8E493A3C8C582C8CAC583CAF0A3C8C582C8CAC583CADFE9DEE780BE7E007FC89000CCEEF0A3EFF07B007A4079807F017E007D187C00121F
:401600002F8A7B007A4079847F007E007D197C00122F8A9043007402F09040007408F09042007403F07B0C7A0179081230069046A1EFF07B007A4279227D087C00122FAB57
:401640007B007A4279207D517C10122FAB9000CEE4F07F197E007D007C009000C81202CD9000CCE0FEA3E0FF8F828E831202B5EC4D4E4F604E9000CEE0FFEF6403604490E8
:401680004225E0FFEF5401FF7E009000CEE0FEEE25E0FEEE4FFFEF5403FF9000CEEFF07FE07E017D007C001229009000C81202B57BFF7AFF79FF78FF12010C9000C8120298
:4016C000CD809D7B007A4079047D037C01122FAB904004E4F09040047407F0904006E4F09040087448F0904004E4F09040017402F09043A2E0FFEF4403FFEFF0229000CC8B
:40170000EFF09000CDEDF09000CEEBF09000D0E4F09000CFE0FF7E007C007D051200579000D1EFF09000CFE0FF7E007C007D05120057AF059000D2EFF09000CEE0FF9000DB
:40174000D1E0FEEEC39F400A9000CEE0FF9000D1EFF09000CCE0FF9000CDE0FD1226479000D0E4F09000D1E0FF9000D0E0FEEEC39F500D7F05122C569000D0E004F080E4A0
:401780009000CEE0FF9000D1E0FEEEC39F505D9000D2E0FF122C569000CEE0FF7E00EF24FFFFEE34FFFE9000D1E0FD7C00C3ED9FEC9E50389000D0E4F09000D1E0FF9000D1
:4017C000CEE0FEC3EE9FFF7E00EF24FFFFEE34FFFE9000D0E0FD7C00C3ED9FEC9E500D7F00122C569000D0E004F080CD227F007E007D007C0090012E1202CD90760074107B
:40180000F09070107401F0907019E4F09078027401F090780374A3F07B027A7879007DE07C01122FAD7B027A787904C003C002C0017BFF7A307966AC02AD01D001D002D021
:4018400003122FAD7B027A7879067D087C78122FAD7B027A7679047D107C00122FAD7B027A7679067D007C00122FAD9070297409F0907039740CF09070697419F0907079D0
:40188000741BF09070147401F0907018E0FFEF20E0F7907028E0FFEF20E0F7907038E0FFEF20E0F7907068E0FFEF20E0F7907078E0FFEF20E0F7907010E4F0907020E4F027
:4018C000907030E4F0907060E4F0907070E4F0229000CEEFF0AE03900002E0FCEFC39C40030219AB9000D37480F0AF059000591202E59000CEE0FD29F9E43AFAEF12003311
:401900009000691202E5E92DF9E43AFAE4120033AF06900000E0FAA3E02DF582E43AF583E493FE9000561202E5E92EF9E43AFAEF1200339000D3E0FED39400406E9000698A
:401940001202E59000CEE0FF29F9E43AFA12001AFDEE4D120033122FBA123035EF70FA90004E1202E59000CEE075F002A429F9EA35F0FA1200C2FFD39000D2E09F9000D150
:40198000E095F0401C9000691202E59000CEE029F9E43AFA12001AFF9000D3E0F45F1200339000D3E0FFC313F0808822122DE37F021228DA12301E9000CBEFF090649EE001
:4019C000FFEF4403FFEFF090649FE0FFEF4403FFEFF09000CBE0FF122FFA7B027A64792E7D007CB4122FAD7B027A64794E7DFF7CFF122FAD90648F7407F012301E9000CB8C
:401A0000EFF0906490E0FFEF4403FFEFF0906491E0FFEF4403FFEFF09000CBE0FF122FFA90642074FFF090644074FFF090640074FFF090642174FFF090645174FFF09064EA
:401A40004174FFF07F01121EBB7C1F7D647F011220097D077F011220A612303D7F071229DB7F081229DB7F091229DB90647EE0FFEF4404FFEFF0122B70122F1D229000CCFF
:401A8000EFF0E0FF240DF582E43400F58374FFF09000691202E5E92FF9E43AFA12001A9000CDF09000CCE0FF9000D174BFF0A374FFF0FB1218D09000CCE09032D793FF7E9A
:401AC00000900066E0FCA3E0FD120341C0079000CDE0FFFBE4FAF9F8D0071201B2AD07AC06D3ED9480EC9400401B9000CCE0240DF582E43400F583E0FFC313F0ECC313FCE9
:401B0000ED13FD80DC9000CCE0FE2437F582E43400F583EDF074372EF582E43400F583E0FF1313543FFF74142EF582E43400F583EFF090004B1202E575F002EEA429F9EAE7
:401B400035F0FAE4F5F01200ED229000CBEFF09000CBE0FFEF9032FE93FF9000CFEFF09000CBE0FFEF90330193FF9000D0EFF09000CFE0FF9000D0E0FD9000CBE0FE7484FF
:401B80002EF582E43400F583E0FB121C039000CCEFF09000CCE0FFEF64FF60549000CBE0FFEF25E02404F582E43433F583E493FE740193FF9000D4EEF0A3EFF09000CCE05C
:401BC000FF9000CFE0FD9000D0E0FB9000CBE0FE748B2EF582E43400F583E0FE9000D6EEF01208157E009000CDEEF0A3EFF0800A9000CD74FFF0A374FFF09000CDE0FEA348
:401C0000E0FF229000D1EFF09000D2EDF09000D3EBF09000D574FFF09000D6E4F09000D1E0FF749B2FF9E43400FA7B019000D71202EE9000D4E4F09000D2E0FF9000D4E0B9
:401C4000FEEEC39F506A9000D71202E59000D4E0FFE92FF9E43AFA12001AFF9000D3E0FEEFD39E40439000D71202E59000D4E0FFE92FF9E43AFA12001AFF9000D6E0FEEF17
:401C8000D39E40249000D4E0FF9000D5EFF09000D71202E59000D4E0FFE92FF9E43AFA12001AFF9000D6EFF09000D4E004F080879000D5E0FF229000E5EFF090647EE0FF42
:401CC000EF54FCFFEFF0906411E0FF7E00EF7F00FE9000E5E0FDED25E024ACF582E43400F583EEF0A3EFF09000E5E0FFEF25E024ACF582E43400F583C083C082E0FEA3E079
:401D0000FF906401E0FD7C00EE4CFEEF4DFFD082D083EEF0A3EFF09000E5E0FFEF25E024ACF582E43400F583E0FEA3E0FFC374FF9FFF74FF9EFE9000E5E0FDED25E024AC68
:401D4000F582E43400F583EEF0A3EFF09000E5E0FF1221CC7F00122D4D905870E0FFEF4401FFEFF02212302FE49000CBF0900002E0FE9000CBE0FFC39E501C900065E0FD4A
:401D80009000D17401F0A37480F07B011218D09000CBE004F080D6E49000CBF0900068E0FF9000CBE0FEC39F50339000691202E5E92EF9E43AFA12001AFF131313541FFFC7
:401DC0009032DE93FD9000591202E5E92EF9E43AFAED1200339000CBE004F080BF123029E49000CBF0900002E0FE9000CBE0FFC39E501B9000591202E5E92FF9E43AFA12DC
:401E0000001AFD121A7D9000CBE004F080D71212822290FFFF12031DEFF090FFFE12031D850883850982A3A3E0FFEFD3941F5003D38001C34025850883850982A3A3E0FF68
:401E4000EFD3941F500A7F017E007D007C0080087F007E007D007C00122D77850883850982A3A3E0FFEF541FFF7E00EF7803CEC313CE13D8F9FFEF24C0FFEE3444FE8508C2
:401E800083850982EEF0A3EFF0850883850982A3A3E0FFEF5407FF7401A807088002C333D8FCFF850883850982E0FCA3E0FD8D828C83EFF090000312031D2290FFFF120327
:401EC0001DEFF090FFFE12031D850883850982A3A3E0FFEFD3941F5003D38001C34025850883850982A3A3E0FFEFD3941F500A7F017E007D007C0080087F007E007D007C15
:401F000000122D77850883850982A3A3E0FFEF541FFF7E00EF7803CEC313CE13D8F9FFEF24C8FFEE3444FE850883850982EEF0A3EFF0850883850982A3A3E0FFEF5407FFBC
:401F40007401A807088002C333D8FCFF850883850982E0FCA3E0FD8D828C83EFF090000312031D22C0E0C0F0C083C082C085C084C086758600C093759300C0D075D000C0FB
:401F800000C001C002C003C004C005C006C0079000ABE0FF121CB69000BDE0FFEF5480FF7E00EF4E60109000BDE0FFEF54FEFF9000BDEFF080309000ABE0FF1225879000FE
:401FC000ABEFF09000ABE0FFEFC39407500A9000ABE0FF122C1F800E9000BDE0FFEF54FEFF9000BDEFF0D007D006D005D004D003D002D001D000D0D0D093D086D084D0855B
:40200000D082D083D0F0D0E0329000CCEFF09000CDECF0A3EDF09000CCE0FFEFD3941F5003D38001C340209000CCE0FFEFD3941F500A7F017E007D007C0080087F007E0065
:402040007D007C00122D779000CCE0FFEF541FFF7E00EF25E0FFEE33FEEF2400FFEE3444FEAA06A9077B01122F9E9000CFEEF0A3EFF09000CCE0FF7E02EF8EF0A4FFAEF02C
:40208000EF2400FFEE3444FEAA06A9077B019000CDE0FEA3E0FFAD07AC06122FAD9000CFE0FEA3E0FF229000CCEFF09000CDEDF09000CDE0FFEFD394075003D38001C34024
:4020C000209000CDE0FFEFD39407500A7F017E007D007C0080087F007E007D007C00122D779000CCE0FFEFD3941F5003D38001C340209000CCE0FFEFD3941F500A7F017E20
:40210000007D007C0080087F007E007D007C00122D779000CDE0FFEF5407FF7E00EF75F020A4FFAEF09000CCE0FEEE541FFE74802EF582E43444F583EFF0229000D9EFF06B
:402140009000D9E0FFEF9032D093FF9000DAEFF09000D9E0FFEF25E024ACF582E43400F583E0FEA3E0FF9000D9E0FDED25E02473F582E43400F583EEF0A3EFF09000D9E0C9
:40218000FF74912FF582E43400F583E4F09000D9E0FF749B2FF582E43400F583E4F09000DAE0FFEFD3940040229000DAE0FF74872FF582E43400F583E0FF9000DAE0FE749A
:4021C000802EF582E43400F583EFF0229000E6EFF09000E6E0FFEF9032B293FF9000E7EFF09000E6E0FFEF9032B993FF9000E8EFF09000E6E0FF1228909000E7E0FFEFB474
:402200000F069000E77407F09000E7E0FFEF25E024C0F582E43432F583E493FE740193FF8F828E83C083C082E0FF9000E8E0FEEEF4FEEF5EFFD082D083EFF09000E6E0FFE3
:40224000EF25E024A4F582E43432F583E493FE740193FF8F828E837408F0229000E6EFF09000E6E0FFEF9032B293FF9000E7EFF09000E6E0FFEF9032B993FF9000E8EFF0A0
:402280009000E6E0FFEF25E024A4F582E43432F583E493FE740193FF8F828E837409F09000E7E0FFEFB40F069000E77407F09000E7E0FFEF25E024C0F582E43432F583E48E
:4022C00093FE740193FF8F828E83C083C082E0FF9000E8E0FEEF4EFFD082D083EFF09000E6E0FF1229DB227F287E007D007C001223E67F0312294B7F057E007D007C0012CF
:4023000023E67F0312294B7F0F7E007D007C001223E67F0312294B7F017E007D007C001223E67F0212294B7F057E007D007C001223E67F06122A687F0E122A687F2C122AF4
:40234000687F08122A687F01122A687F0C122A687F03122A687F057E007D007C001223E67BFF7A327964122994229000CBEFF09000CCEDF07D007F001226479000CBE0FF1F
:40238000EF60179000CCE0FFEF600F7BFF7A2A79F01227F57F01122CC0229000CBE0FFEF70089000CCE0FFEF602D9000CBE0FFEF600E7BFF7A2B79001227F57F01122CC096
:4023C0009000CCE0FFEF601D7BFF7A2B79091227F57F00122CC0227BFF7A2B79121227F57F00122CC02290FFFC12031D1202CD7F007E807D007C008508838509821202C148
:40240000D312025E403090011F1202B5122900850883850982C083C0821202B5C3EF9400FFEE9480FEED9400FDEC9400FCD082D0831202CD80B99001151202B585088385C3
:4024400009821202C112012712290090000412031D22906473E0FFEF54C0FF9000CBEFF09000CBE0FFEF440DFF906473EFF0906492E0FFEF4401FFEFF0906493E0FFEF444E
:4024800001FFEFF07F507E00122EB87F507E00122E9E7F017E00122ED2906483E4F012301E9000CCEFF0906493E0FFEF4410FFEFF09000CCE0FF122FFA122F75229000CBA7
:4024C000E4F09000CBE0FFEFC3940750579000CBE0FFEF131313541FFF9000CCEFF09000CBE0FFEF5407FF7401A807088002C333D8FCFF9000CDEFF09000CCE0FF74BF2FF8
:40250000F582E43400F583E0FF9000CDE0FEEF5EFFEF60089000CBE0FF12054D9000CBE004F0809E22D2AF122F4B122E46122E04122BAD122F05EF70FA1224BD122BAD127B
:402540002F607F011225E99000C9EFF07F021225E99000CAEFF07F00121B4A9000C8EFF09000C9E0FF9000CAE0FD12236A9000C8E0FF122BE79000C8E0FFC374509FFF7EAA
:4025800000122ED280AD229000E5EFF09000E5E004F09000E5E0FFEF640760479000E5E0FFEF131313541FFF9000E6EFF09000E5E0FFEF5407FF7401A807088002C333D86C
:4025C000FCFF9000E7EFF09000E6E0FF74BF2FF582E43400F583E0FF9000E7E0FEEF5EFFEF60A99000E5E0FF229000CBEFF09000CBE0FFEF9032FE93FF9000CCEFF090005E
:40260000CBE0FFEF90330193FF9000CCE0FEEF2EFF9000CDEFF09000CEE4F09000CCE0FF120C25EF60069000CE7401F09000CCE004F09000CDE0FF9000CCE0FEEEC39F401B
:40264000DA9000CEE0FF229000D3EFF09000D4EDF09000D3E0FFEF1202F7266A002677012684022691030000269D9000D4E0FFEF2480FF122A68229000D4E0FFEF24C0FF5B
:40268000122A68229000D4E0FFEF2494FF122A68229000D4E0FFEF24D4FF122A68229000D5EFF0121148905120E0FFEF4420FFEFF0905120E0FFEF54BFFFEFF0905120E055
:4026C000FFEF54F0FFEFF0905120C083C082E0FF9000D5E0FEEE4410FEEF4EFFD082D083EFF07F017E00122D20905120E0FFEF54EFFFEFF02212301E9000CBEFF090649F86
:40270000E0FFEF4420FFEFF0122FEE122F34122B329043BBE0FFEF4410FFEFF09043ABE0FFEF4410FFEFF0905870E0FFEF4401FFEFF09000CBE0FF122FFA7F01121E12905A
:40274000647EE0FFEF4480FFEFF022905820E0FFEF540CFF7E00EEC313FEEF13FF9000CDEFF0905821E0FFEF5404FF7E00EF64044E70069000CDE004F09000CDE0FFE4FC1F
:40278000FDFEEF241CFFEE3401FEED340CFDEC3400FCA907AA06AB05123006904608EFF0229000E6EFF09000E6E0FFEF9032D093FF9000E7EFF09000E6E0FF74C12FF5820F
:4027C000E43400F583E0FF122D4D9000E7E0FF74BA2FF582E43400F583E0FF906450EFF09000E6E0FF74A42FF582E43400F583E0FF122E64229000CD1202EE9000D07401A6
:40280000F09000CD1202E512001AFF9000D1EFF09000D1E0FFEF602A9000D1E0FF122C569000CD1202E59000D0E0FFE92FF9E43AFA12001AFF9000D1EFF09000D0E004F0FD
:4028400080CE22900127747FF09001287480F09000C8747FF09000C8E0FFEF60219000C8E0FFEF14FF9000C8E0FE75F008EE9078001202D9EFF09000C8E014F080D790000D
:40288000C8E0FF75F008EF9078001202D9E4F0229000E9EFF09000E9E0FFEFC3940A50399000E9E0FFEF25E02446F582E43432F583E493FE740193FF8F828E83C083C0828F
:4028C000E0FF9000E9E0FEEE90325A93FEEEF4FEEF5EFFD082D083EFF0229000CCEFF09000CCE0FFEFB4010C90647EE0FFEF54EFFFEFF02290647EE0FFEF4410FFEFF022F8
:40290000EC4D4E700D78FCEF24E950032840FD22000078C5904800E0C4030354039029479325E0240FF404FBEF28FF78FFEE38FEED38FDEC38FC50D7EF2BFFEE38FEED38F9
:40294000FDEC38FC40F222060304059000D7EFF0905120E0FFEF549FFFEFF0905120E0FFEF54F0FFEFF0905120C083C082E0FF9000D7E0FEEE4410FEEF4EFFD082D083EF43
:40298000F07F017E00122D20905120E0FFEF54EFFFEFF0229000CB1202EE1211487F40122A689000CEE4F09000CEE0FFEFC3944050209000CB1202E59000CEE0FFE92FF986
:4029C000E43AFA12001AFF122C569000CEE004F080D51211487F80122A68229000E9EFF09000E9E0FFEFC3940A50369000E9E0FFEF25E02446F582E43432F583E493FE74EB
:402A00000193FF8F828E83C083C082E0FF9000E9E0FEEE90325A93FEEF4EFFD082D083EFF0229000CCEFF09000CCE0FFEF5403FF905840E0FEEE54FCFEEE4FFF905840EF59
:402A4000F09000CCE0FFEFB4010F7B0C7A017910123006904600EFF0227B0C7A0179A9123006904600EFF0229000D5EFF09000D5E0FFEFC4540FFF9000D6EFF012114890AE
:402A800000D6E0FFEF540FFF9000D6EFF09000D6E0FF12294B9000D5E0FFEF540FFF9000D6EFF09000D6E0FF12294B22C2D5E830E70FB2D5E4C39BFBE49AFAE499F9E49866
:402AC000F8EC30E717B2D5122AE21201B2E4C39BFBE49AFAE499F9E498F880031201B230D50DE4C39FFFE49EFEE49DFDE49CFC22427574746F6E3120427574746F6E320005
:402B0000427574746F6E31200020427574746F6E3200546F75636820427574746F6E732000546F7563682054686520536C69646572009000A2E0FFEF5401FF7E00EF4E6092
:402B4000189000A2E0FFEF54FEFF9000A2EFF09000A3E0FF905820EFF09043A8E0FFEF4401FFEFF09043B8E0FFEF4401FFEFF0227F00122A22905840E0FFEF4420FFEFF0C3
:402B8000905840E0FFEF54FBFFEFF0905840E0FFEF4408FFEFF0905AC7E0FFEF54E7FFEFF0905AC7E0FFEF4410FFEFF0229000BDE4F09000AB74FFF09000ABE0FF122587D0
:402BC0009000ABEFF09000ABE0FFEFC3940750169000BDE0FFEF4401FF9000BDEFF09000ABE0FF122C1F229000CBEFF09000CBE0FFEFD3945040117D007F011226477BFF69
:402C00007A2B79211227F5229000CBE0FFEF04FF9000CFEFF07B107D007F011216FD229000E5EFF09000E5E0FF1227A190647EE0FFEF4401FFEFF0905870E0FFEF54FEFF70
:402C4000EFF09000E5E0FF12225B90647EE0FFEF4402FFEFF0229000D3EFF01211489000D3E0FFEFC4540FFF9000D4EFF09000D4E0FF12269E9000D3E0FFEF540FFF900089
:402C8000D4EFF09000D4E0FF12269E22758600EF4E6027EF60010E7593009000CDE0F595A3E0F585A3E0F5848B938A838982E0A30586F0A31586DFF6DEF4E4F593F5952210
:402CC0009000CDEFF0905110E0FFEF54BFFF9000CEEFF09000CDE0FFEFC4333354C0FFEF5440FF9000CEE0FEEF4EFF905110EFF0229000CCEFF0905820E0FFEF54F3FFEFF0
:402D0000F0905820C083C082E0FF9000CCE0FEEE540CFEEF4EFFD082D083EFF012274B22EEFA900119E0F88FF0A4FFAEF0E88AF0A42EFEE5F03400FDEF24C9FF78FFEE3871
:402D4000FEED38FDE438FC5003022900229000E8EFF012301E9000E9EFF09000E8E0FF905B80EFF09000E8E0FF905B80EFF09000E9E0FF122FFA2290FFFF12031DEFF08551
:402D80000883850982E0FF850883850982EFF09046EA7401F090000112031D2290512D7480F09051CD74AAF0905870E4F0905AC37420F0905B007409F09058767444F02205
:402DC0009000D5EFF09000BDE4F09000D5E0FF9000ABEFF09000BD7481F09000D5E0FF122C1F229000CCE4F09000CCE0FFEFC3940750109000CCE0FF1221CC9000CCE00489
:402E0000F080E5229000CBE4F09000CBE0FFEFC3940750109000CBE0FF122E829000CBE004F080E5229000CCE4F09000CCE0FFEFC3940A50109000CCE0FF1228909000CCD7
:402E4000E004F080E5229000C0E0FFEF70091219AC9000C07401F01226F51230399000BE7401F0229000E8EFF09000E8E0FF90642CEFF09000E8E0FFEFC313FF90643CEF70
:402E8000F0229000CCEFF09000CCE0FF122DC0122F05EF70FA9000CCE0FF12213B229000CDEEF0A3EFF07B027A6479029000CDE0FCA3E0FD122FAD229000CDEEF0A3EFF008
:402EC0007B027A6479429000CDE0FCA3E0FD122FAD229000CDEEF0A3EFF07B027A6479229000CDE0FCA3E0FD122FAD22EC4D6011ED60010C8B938A838982E4F0A3DDFCDC11
:402F0000FA759300229000BDE0FFEF5401FF7E00EF64014E70047F0180027F00229058207410F09058217402F07F04122CF17F00122D4D229043A7E0FFEF4401FFEFF09002
:402F400043B7E0FFEF4401FFEFF022900135E0FFEF70091222E79001357401F0122FD622900139E0FFEF70091224529001397401F0122FE222906463E0FFEF30E40B7B02EA
:402F80007A647952122F9E80EC228B938A838982EFF0A3EEF0A3EDF0759300228B938A838982E0FFA3E0FE759300228B938A838982EDF0A3ECF0759300229000D4EFF0906C
:402FC00000D4E0FF122DC0229000D9EFF09000D9E0FF120DF4227F0C122A689001367401F022906473E0FFEF4480FFEFF0229043A2E0FFEF4401FFEFF022EF54016004D2C0
:40300000AF8002C2AF228B938A838982E0759300FF228B938A838982EDF0759300227F0010AF012274014FFF227F021228DA227F011228DA22122F0522121D6522122E251A
:403040002201000000000000000100000000000100010000000800000001000000080001000100000001000823023041760800082303304976100008230430517628000877
:40308000230530597630000523063061702000052307306170300005230830617060000523FF306170700040220A012E51300010220B012E51C0001022FF012E51F0018026
:4030C000220D012E04000180220E012E06000180220F012E080001802210012E0A0000802211012E0C8003802212012E140004002213012E180000802214012E41000200A3
:403100002215012E420000802216012E450000802217012E470000802218012E4800020022FF012E4C000040231A03886400002023FF03C864700008231C00005100008058
:40314000231D000800000080231E008800800080231F0108020000802320018802800080232102080C000080232202880E000080232303080E800080232403E84780008014
:403180002325046846000080232604E8468000802327056845800080232805E8440000802329066844800080232A06E817800080232B076809800080232C07E807800080C7
:4031C000232D08680B800080232E08E805800080232F09680D000080233009E80D80008023310A680300008023320AE80380008023330B680F00008023340BE80F800080D9
:4032000023350C680100008023360CE80180008023370D684900008023380DE84980008023390E6848800080233A0EE841800080233B0F6840000080233C0FE84080001059
:4032400023FF10685000510C510C510C510C510C510C510C512C5AC35A83204001020408108001100000000000000000101010101010101018181818181818181C1C1C1CA2
:403280001C1C1C1C1E1E1E1E1E1E1E1E1F1F1F1F1F1F1F1F0000000000000000000000000000000050055006500050015002500350040000000000000020400102040810F2
:4032C0005206520E5216521E5226522E5236527E01020000000000020202020202020101010101010202020202030303030303040404040404050505050505060606020071
:403300000105010114000000000000000000000000000000000000000000000000000000000000000000000000000000000000000000000000000000000000000000000071
:40334000000000000000000000000000000000000000000000000000000000000000000000000000000000000000000000000000000000000000000000000000000000004D
:40338000000000000000000000000000000000000000000000000000000000000000000000000000000000000000000000000000000000000000000000000000000000000D
:4033C00000000000000000000000000000000000000000000000000000000000000000000000000000000000000000000000000000000000000000000000000000000000CD
:40340000000000000000000000000000000000000000000000000000000000000000000000000000000000000000000000000000000000000000000000000000000000008C
:0200000480007A
:400000000C00000000000000400000006060000010010412001880031F06001100076008070008001820038000C0600001101204200000E006E011001F1FE0600080000047
:40004000000000000000041465040000002266623F0000000000000000000000000000000404040011000000000CF00C000C000C404C404C9058000C00000000000000008D
:400080000000000000000000000000000000000000000000000000000000000000000000000000000000000000000000000000000000000000000000000000000000000040
:4000C00000000000000000002506000000000026300000000000000000000000000000000000040000000000000CF00C000C000C404C404C9058000C00000000000000004F
:4001000000000000000000000000000000000000000000000000000000000000000000000000000000000000000000000000000000000000000000000000000000000000BF
:400140000000000000000000600200000000000000FFFFFF00A00004180000000000000000000400000100004000C0004040C000C000C000C000C00000000000000000001F
:400180000000000000000000000000C0004000000080000002180003040600110007030800010012000000C00000003F03C0000001C0000000100004031F042000C00000C5
:4001C00000800000000005103002000000D2010037FFFFFF00AF0F04180000002500000004040404101100004000C0004040C000C000C000C000C0000000000000000000C1
:4002000000000000000000000000000000000000000000000000000000000000000000000000000000000000000000000000000000000000000000000000000000000000BE
:40024000000000000000000065000000000054021CFFFFFF02200005001000000000000000000400000000004040800080008000000000000000000000000000000000006F
:4002800000000000000000000000000017000800000000001E00010000000000000000000D001200000000000000050010000200200000000000200003000400180020004B
:4002C0000000000000000000050300000000000000FFFFFF020CF80000000000000008000400040C00000000000048A100000000F000F000F000F00000000000000000002E
:4003000000000000000000000104800802001000FF010000000060067E008100DF002020F7000808E9001610040010100000600000100000000100000F013002400C8030B1
:40034000000200000000005005010000000A000000FFFFFF030CF40000000000000002000404040400000900000048A100000000F000F000F000F000000000000000000057
:400380000000000000000000FFFF00000000000000000000FF000000FFFF0000000000000000000000000000FFFF0000000000000000000000000000000000000000000044
:4003C0000000000000000000000000000000000000000000000000000000002D00000000000000000000001F000000000000000000000000000000000000000000000000B1
:4004000000000000000000000000000000000000000000000000000000000400000000000000000000000000000000000000000000000000000000000000000000000000B8
:40044000000000000000000000000000000000000100000000000000000000000000000000000000000000000000000000000000000000000000000000000000000000007B
:40048000000000000000000000000000000000000000000000000000000000000000000000000000000000000000000000000000000000000000000000000000000000003C
:4004C00000000000000000000000000000000000000000000000000000000000000000000000000000000400000000000000000000000000000000000000000000000000F8
:4005000000000000000000000000000000000000000000000000000000000000000000000000000000000000000000000000000000000000000000000000000000000000BB
:40054000000000000000010000000000000000000000000000000000000000000000000000000000000000000000000000000000000000000000000000000000000000007A
:4005800000000000000000000000000000000000000000000000000000000080040000000000000000000000000000000000000000000000000000000000000000000000B7
:4005C00000000000000000000000000000000000000000000200040000000000000000000000000000000000000000000000000000000000000000000000000000000000F5
:4006000000000000000000000000008000000000000000000000000000000000000000000000008000000000000000000000000000000000000000000000000000000000BA
:40064000000000000000000000000000000000000000000000000000000000000200000000000000040000420000000200000000020000000000000000000000000000002E
:400680000000000000000000000000000000000000000000000000000000000000000000000000000000000000000000000000000200000000000800000000000000000030
:4006C00000000000000000000000000001000000000000000000000000000000000000000000000000000000000000000000000000000000000000000000000000000000F9
:400700000000000000000000000000000000000000000000000000400000000000000000000000000000000000000000000000000000000000000000000000000000000079
:400740000000000000000000000000000000000000000000000000000000000000000000000000000000000000000000000000000000000000000000000000000000000079
:400780000000000000000000000000000000000000000000000000000000100000000000000000000000000000000000000000000000000000000000000000000000000029
:4007C00000000000000000000000000000000000000000000000000000000000000000000000000000000000000000000000000000000000000000000000004000000000B9
:4008000000000000000000000000000000000000000000000000000000000000000000000000000000000000000000000000000000000000000000000000000000000000B8
:400840000000000000000000000000000000000000000000000000000000000000000000000000000000000000000000000000000000000000000000000000000000000078
:4008800000000000000000000000100000000000000000000000004000000040040000000000000000000000000000000000000000000000000000000000000000000000A4
:4008C0000000000000000000000000000000000000002000000040000000000000000000000000000000000000000000000000000000000000000000000000400000000058
:400900000000000000000000000000000000000000000000040000000000080000042000000000000000000000000000000000000000000000000000000000000000000087
:40094000000000000000000000000000000000000000080000000000000000000000000000000000000000000000000000000000000000000000000000000000000000006F
:400980000000000000000000000000000000000000000000000000000000000000000000000000000000000000000000000000000000000009000000000000001800800096
:4009C0000000000000000000000000000000000000000000000000000000000000000000000000000000000000000000000000000000000000000000060000C00000000031
:400A000000000000000080000000100010000000060000080000000000000105800000C0000000000000000000000000000000000000000000000000000030000000000092
:400A4000000000000000000000000000000000001000C000800040000000000000000000000000000000000000000200000000000400800000000000080800000000000050
:400A8000400000040000000000244840000000000001280200000000000094010000000000801104000000000804000008000000000A00000000080000C004020000000005
:400AC000000A4000080800000000000800000000005028090000000000010000000000000000000000000000000000000000000000000000000000000000400440D00800B6
:400B000000001100000004090800820000A000000180000400040000000000020400A000000000000000000001000C000600000000000F000F000F002600200000000B00AD
:400B40000400000000000000000000000000000000008400000000000000000000000000000000000000000000080002802020C00000080000005A0000000A0A8004000069
:400B800080A80A0E04405AC40000000040009A0000000000040081000000000000402400000000006000000100400048020000000080000000002100000000000000000044
:400BC0000000000100000000000000C0000000000004000A000000000000000100000080008000000000000801002004000000400400800000000000000000000000000034
:400C000000000000000000000000000000000000000000000000000000000000000000000000000000000000F500F2003F0000000000B0007000B000120018000000010093
:400C4000010000000000280000008400800000000000000000000000000000000000000000000000000000000480048000000000008808400000000000408808000000009F
:400C8000000040040000000008000050000000000480048000000000800004010000000004900000000000004000000000200000850000040100001008043A8200080100AC
:400CC00000000000000000000000000000000000000000000000000000000000000000000000000000000000000000000400000001000000000000000000000000000000EF
:400D0000000000000000000000000000000000000000000000000000000000000000000000000000000000000F000F000F00000000000F000B000E0021003C000000000001
:400D400000000000000000000000080080000000000000000000000000000000000000000000000000000000000000000000000000000000000000000000000000000000EB
:400D80000000000000000000000000000000000000000000000000000000000000000000000000000000000000000000000000000000000000000000000000000000000033
:400DC0000000000000000000800000000000000000000000000000000000000000000000000000000000000000000000000000000000000000000000000000000000000073
:400E00008000000000000000000000000000000000000000000000000000000000000000000000000000000000000000000000000000000000000000000000000000000032
:400E40004000000000000000000000000000000000000000000000000000000000000000000000000000000000000000000000000000000000000000000000000000000032
:400E80008000000000000000000000000000000000000000800000000000000000000000000000000000000000000000000000000000000000000000000000000000000032
:400EC00000000000000000000000000000000000000000000000400000000000000000000000000000000000000000000000000000000000000000000000000000000000B2
:400F0000000000000000000000000000000000000000000004000000000010000000000000000000000000000000000000000000000000000000000000000000000000009D
:400F40000000000000000000000000000000000000001000000000000000000000000000000000000000000000000000000000000000000000000000000000000000000061
:400F80000000000000000000000000000000000000000000000000000000000000001000000000000000000000000000000000000000000000000000000000000000000021
:400FC00000000000000000000000000000000000000000000000000000000000000000000000000000000000000000000000000004000000000000000000000000000000ED
:401000000000000000000000000000000000000000000000000000000000000000000000000000000000000000000000000000000000000020000000000000000000000090
:40104000000000000000000000000000000000000000000000000000000000000000000000000000000000000300000000000000030000000000010000007F0000000000EA
:4010800000C0C00080000000007F7F00000080000000000000007F0000800000000000000000000000000000000000000000000000000000000000000000000000000000B3
:4010C00000000000000000000000000000000000000000000000000000000000000000000000000000000000000000000000000000000000000000000000000000000000F0
:4011000000000000000000000000000000000000000000000000000000000000000000000000000000000000000000000000000000000000000000000000000000000000AF
:40114000000000000000000000000000000000000000000000000000000000000000000000000000000000000000000000000000000000000000000000000000000000006F
:40118000000000000000000000000000000000000000000000000000000000000000000000000000000000000000000000000000000000000000000000000000000000002F
:0200000490006A
:0400000000000005F7
:0200000490105A
:04000000AFAC90BC55
:0200000490303A
:02000000AEC38D
:0200000490501A
:0C00000000010E02806901010E1D2F2C72
:0200000490402A
:4000000000000000000000000000000000000000000000000000000000000000000000000000000000000000000000000000000000000000000000000000000000000000C0
:00000001FF
